{
  "contractName": "LufthansaFinanceICO",
  "abi": [
    {
      "inputs": [
        {
          "internalType": "address",
          "name": "_token",
          "type": "address"
        },
        {
          "internalType": "uint256",
          "name": "_rate",
          "type": "uint256"
        }
      ],
      "stateMutability": "nonpayable",
      "type": "constructor"
    },
    {
      "anonymous": false,
      "inputs": [
        {
          "indexed": true,
          "internalType": "address",
          "name": "buyer",
          "type": "address"
        },
        {
          "indexed": false,
          "internalType": "uint256",
          "name": "value",
          "type": "uint256"
        }
      ],
      "name": "BoughtTokens",
      "type": "event"
    },
    {
      "anonymous": false,
      "inputs": [
        {
          "indexed": true,
          "internalType": "address",
          "name": "previousOwner",
          "type": "address"
        },
        {
          "indexed": true,
          "internalType": "address",
          "name": "newOwner",
          "type": "address"
        }
      ],
      "name": "OwnershipTransferred",
      "type": "event"
    },
    {
      "inputs": [],
      "name": "endUTCDateTime",
      "outputs": [
        {
          "internalType": "uint256",
          "name": "",
          "type": "uint256"
        }
      ],
      "stateMutability": "view",
      "type": "function",
      "constant": true
    },
    {
      "inputs": [],
      "name": "owner",
      "outputs": [
        {
          "internalType": "address",
          "name": "",
          "type": "address"
        }
      ],
      "stateMutability": "view",
      "type": "function",
      "constant": true
    },
    {
      "inputs": [],
      "name": "phase",
      "outputs": [
        {
          "internalType": "enum LufthansaFinanceICO.State",
          "name": "",
          "type": "uint8"
        }
      ],
      "stateMutability": "view",
      "type": "function",
      "constant": true
    },
    {
      "inputs": [],
      "name": "phaseCap",
      "outputs": [
        {
          "internalType": "uint256",
          "name": "",
          "type": "uint256"
        }
      ],
      "stateMutability": "view",
      "type": "function",
      "constant": true
    },
    {
      "inputs": [],
      "name": "raisedAmount",
      "outputs": [
        {
          "internalType": "uint256",
          "name": "",
          "type": "uint256"
        }
      ],
      "stateMutability": "view",
      "type": "function",
      "constant": true
    },
    {
      "inputs": [],
      "name": "rate",
      "outputs": [
        {
          "internalType": "uint256",
          "name": "",
          "type": "uint256"
        }
      ],
      "stateMutability": "view",
      "type": "function",
      "constant": true
    },
    {
      "inputs": [],
      "name": "renounceOwnership",
      "outputs": [],
      "stateMutability": "nonpayable",
      "type": "function"
    },
    {
      "inputs": [],
      "name": "saleCount",
      "outputs": [
        {
          "internalType": "uint256",
          "name": "",
          "type": "uint256"
        }
      ],
      "stateMutability": "view",
      "type": "function",
      "constant": true
    },
    {
      "inputs": [],
      "name": "startUTCDateTime",
      "outputs": [
        {
          "internalType": "uint256",
          "name": "",
          "type": "uint256"
        }
      ],
      "stateMutability": "view",
      "type": "function",
      "constant": true
    },
    {
      "inputs": [
        {
          "internalType": "address",
          "name": "newOwner",
          "type": "address"
        }
      ],
      "name": "transferOwnership",
      "outputs": [],
      "stateMutability": "nonpayable",
      "type": "function"
    },
    {
      "stateMutability": "payable",
      "type": "receive",
      "payable": true
    },
    {
      "inputs": [],
      "name": "buyTokens",
      "outputs": [],
      "stateMutability": "payable",
      "type": "function",
      "payable": true
    },
    {
      "inputs": [
        {
          "internalType": "uint256",
          "name": "_rate",
          "type": "uint256"
        }
      ],
      "name": "setRate",
      "outputs": [],
      "stateMutability": "nonpayable",
      "type": "function"
    },
    {
      "inputs": [],
      "name": "ownerWithdrawBNB",
      "outputs": [],
      "stateMutability": "nonpayable",
      "type": "function"
    },
    {
      "inputs": [
        {
          "internalType": "uint256",
          "name": "_rate",
          "type": "uint256"
        },
        {
          "internalType": "uint256",
          "name": "_phaseCap",
          "type": "uint256"
        },
        {
          "internalType": "enum LufthansaFinanceICO.State",
          "name": "_state",
          "type": "uint8"
        }
      ],
      "name": "addPhaseSetting",
      "outputs": [],
      "stateMutability": "nonpayable",
      "type": "function"
    },
    {
      "inputs": [],
      "name": "viewPhaseSettings",
      "outputs": [
        {
          "internalType": "uint256",
          "name": "_startUTCDateTime",
          "type": "uint256"
        },
        {
          "internalType": "uint256",
          "name": "_endUTCDateTime",
          "type": "uint256"
        },
        {
          "internalType": "uint256",
          "name": "_phaseCap",
          "type": "uint256"
        },
        {
          "internalType": "uint256",
          "name": "_saleCount",
          "type": "uint256"
        },
        {
          "internalType": "uint256",
          "name": "_rate",
          "type": "uint256"
        },
        {
          "internalType": "enum LufthansaFinanceICO.State",
          "name": "_phase",
          "type": "uint8"
        }
      ],
      "stateMutability": "view",
      "type": "function",
      "constant": true
    }
  ],
  "bytecode": "0x60806040523480156200001157600080fd5b50604051620013d3380380620013d3833981810160405281019062000037919062000246565b620000576200004b620000d560201b60201c565b620000dd60201b60201c565b81600160006101000a81548173ffffffffffffffffffffffffffffffffffffffff021916908373ffffffffffffffffffffffffffffffffffffffff160217905550806005819055506000600860006101000a81548160ff02191690836004811115620000c857620000c76200028d565b5b02179055505050620002bc565b600033905090565b60008060009054906101000a900473ffffffffffffffffffffffffffffffffffffffff169050816000806101000a81548173ffffffffffffffffffffffffffffffffffffffff021916908373ffffffffffffffffffffffffffffffffffffffff1602179055508173ffffffffffffffffffffffffffffffffffffffff168173ffffffffffffffffffffffffffffffffffffffff167f8be0079c531659141344cd1fd0a4f28419497f9722a3daafe3b4186f6b6457e060405160405180910390a35050565b600080fd5b600073ffffffffffffffffffffffffffffffffffffffff82169050919050565b6000620001d382620001a6565b9050919050565b620001e581620001c6565b8114620001f157600080fd5b50565b6000815190506200020581620001da565b92915050565b6000819050919050565b62000220816200020b565b81146200022c57600080fd5b50565b600081519050620002408162000215565b92915050565b6000806040838503121562000260576200025f620001a1565b5b60006200027085828601620001f4565b925050602062000283858286016200022f565b9150509250929050565b7f4e487b7100000000000000000000000000000000000000000000000000000000600052602160045260246000fd5b61110780620002cc6000396000f3fe6080604052600436106100ec5760003560e01c80638da5cb5b1161008a578063c59ee1dc11610059578063c59ee1dc146102a5578063d0febe4c146102d0578063e2351195146102da578063f2fde38b1461030a576100f3565b80638da5cb5b146101f957806393b5cd9414610224578063a1e89aec1461024f578063b1c9fe6e1461027a576100f3565b80635b03ba49116100c65780635b03ba4914610175578063715018a6146101a05780637c50601c146101b757806386c9667a146101ce576100f3565b80632c4e722e146100f8578063301502501461012357806334fcf4371461014c576100f3565b366100f357005b600080fd5b34801561010457600080fd5b5061010d610333565b60405161011a9190610ad6565b60405180910390f35b34801561012f57600080fd5b5061014a60048036038101906101459190610b47565b610339565b005b34801561015857600080fd5b50610173600480360381019061016e9190610b9a565b61040e565b005b34801561018157600080fd5b5061018a610494565b6040516101979190610ad6565b60405180910390f35b3480156101ac57600080fd5b506101b561049a565b005b3480156101c357600080fd5b506101cc610522565b005b3480156101da57600080fd5b506101e36105f4565b6040516101f09190610ad6565b60405180910390f35b34801561020557600080fd5b5061020e6105fa565b60405161021b9190610c08565b60405180910390f35b34801561023057600080fd5b50610239610623565b6040516102469190610ad6565b60405180910390f35b34801561025b57600080fd5b50610264610629565b6040516102719190610ad6565b60405180910390f35b34801561028657600080fd5b5061028f61062f565b60405161029c9190610c9a565b60405180910390f35b3480156102b157600080fd5b506102ba610642565b6040516102c79190610ad6565b60405180910390f35b6102d8610648565b005b3480156102e657600080fd5b506102ef6108be565b60405161030196959493929190610cb5565b60405180910390f35b34801561031657600080fd5b50610331600480360381019061032c9190610d42565b6108fa565b005b60055481565b6103416109f1565b73ffffffffffffffffffffffffffffffffffffffff1661035f6105fa565b73ffffffffffffffffffffffffffffffffffffffff16146103b5576040517f08c379a00000000000000000000000000000000000000000000000000000000081526004016103ac90610dcc565b60405180910390fd5b80600860006101000a81548160ff021916908360048111156103da576103d9610c23565b5b021790555042600281905550620d2f00426103f59190610e1b565b6003819055508260058190555081600481905550505050565b6104166109f1565b73ffffffffffffffffffffffffffffffffffffffff166104346105fa565b73ffffffffffffffffffffffffffffffffffffffff161461048a576040517f08c379a000000000000000000000000000000000000000000000000000000000815260040161048190610dcc565b60405180910390fd5b8060058190555050565b60035481565b6104a26109f1565b73ffffffffffffffffffffffffffffffffffffffff166104c06105fa565b73ffffffffffffffffffffffffffffffffffffffff1614610516576040517f08c379a000000000000000000000000000000000000000000000000000000000815260040161050d90610dcc565b60405180910390fd5b61052060006109f9565b565b61052a6109f1565b73ffffffffffffffffffffffffffffffffffffffff166105486105fa565b73ffffffffffffffffffffffffffffffffffffffff161461059e576040517f08c379a000000000000000000000000000000000000000000000000000000000815260040161059590610dcc565b60405180910390fd5b60004790506105ab6109f1565b73ffffffffffffffffffffffffffffffffffffffff166108fc829081150290604051600060405180830381858888f193505050501580156105f0573d6000803e3d6000fd5b5050565b60045481565b60008060009054906101000a900473ffffffffffffffffffffffffffffffffffffffff16905090565b60025481565b60065481565b600860009054906101000a900460ff1681565b60075481565b6000600481111561065c5761065b610c23565b5b600860009054906101000a900460ff16600481111561067e5761067d610c23565b5b1415806106be575060048081111561069957610698610c23565b5b600860009054906101000a900460ff1660048111156106bb576106ba610c23565b5b14155b6106fd576040517f08c379a00000000000000000000000000000000000000000000000000000000081526004016106f490610ebd565b60405180910390fd5b60003490506000600554826107129190610edd565b905061071c6109f1565b73ffffffffffffffffffffffffffffffffffffffff167f61b2357f75eed32a19939598e4c7563879bacd78e9d957c31f0f9f70a3fd14a0826040516107619190610ad6565b60405180910390a2346007546107779190610e1b565b600781905550600160009054906101000a900473ffffffffffffffffffffffffffffffffffffffff1673ffffffffffffffffffffffffffffffffffffffff166323b872dd6107c36105fa565b6107cb6109f1565b846040518463ffffffff1660e01b81526004016107ea93929190610f37565b6020604051808303816000875af1158015610809573d6000803e3d6000fd5b505050506040513d601f19601f8201168201806040525081019061082d9190610fa6565b61086c576040517f08c379a00000000000000000000000000000000000000000000000000000000081526004016108639061101f565b60405180910390fd5b6108746105fa565b73ffffffffffffffffffffffffffffffffffffffff166108fc349081150290604051600060405180830381858888f193505050501580156108b9573d6000803e3d6000fd5b505050565b600080600080600080600254600354600454600654600554600860009054906101000a900460ff16955095509550955095509550909192939495565b6109026109f1565b73ffffffffffffffffffffffffffffffffffffffff166109206105fa565b73ffffffffffffffffffffffffffffffffffffffff1614610976576040517f08c379a000000000000000000000000000000000000000000000000000000000815260040161096d90610dcc565b60405180910390fd5b600073ffffffffffffffffffffffffffffffffffffffff168173ffffffffffffffffffffffffffffffffffffffff16036109e5576040517f08c379a00000000000000000000000000000000000000000000000000000000081526004016109dc906110b1565b60405180910390fd5b6109ee816109f9565b50565b600033905090565b60008060009054906101000a900473ffffffffffffffffffffffffffffffffffffffff169050816000806101000a81548173ffffffffffffffffffffffffffffffffffffffff021916908373ffffffffffffffffffffffffffffffffffffffff1602179055508173ffffffffffffffffffffffffffffffffffffffff168173ffffffffffffffffffffffffffffffffffffffff167f8be0079c531659141344cd1fd0a4f28419497f9722a3daafe3b4186f6b6457e060405160405180910390a35050565b6000819050919050565b610ad081610abd565b82525050565b6000602082019050610aeb6000830184610ac7565b92915050565b600080fd5b610aff81610abd565b8114610b0a57600080fd5b50565b600081359050610b1c81610af6565b92915050565b60058110610b2f57600080fd5b50565b600081359050610b4181610b22565b92915050565b600080600060608486031215610b6057610b5f610af1565b5b6000610b6e86828701610b0d565b9350506020610b7f86828701610b0d565b9250506040610b9086828701610b32565b9150509250925092565b600060208284031215610bb057610baf610af1565b5b6000610bbe84828501610b0d565b91505092915050565b600073ffffffffffffffffffffffffffffffffffffffff82169050919050565b6000610bf282610bc7565b9050919050565b610c0281610be7565b82525050565b6000602082019050610c1d6000830184610bf9565b92915050565b7f4e487b7100000000000000000000000000000000000000000000000000000000600052602160045260246000fd5b60058110610c6357610c62610c23565b5b50565b6000819050610c7482610c52565b919050565b6000610c8482610c66565b9050919050565b610c9481610c79565b82525050565b6000602082019050610caf6000830184610c8b565b92915050565b600060c082019050610cca6000830189610ac7565b610cd76020830188610ac7565b610ce46040830187610ac7565b610cf16060830186610ac7565b610cfe6080830185610ac7565b610d0b60a0830184610c8b565b979650505050505050565b610d1f81610be7565b8114610d2a57600080fd5b50565b600081359050610d3c81610d16565b92915050565b600060208284031215610d5857610d57610af1565b5b6000610d6684828501610d2d565b91505092915050565b600082825260208201905092915050565b7f4f776e61626c653a2063616c6c6572206973206e6f7420746865206f776e6572600082015250565b6000610db6602083610d6f565b9150610dc182610d80565b602082019050919050565b60006020820190508181036000830152610de581610da9565b9050919050565b7f4e487b7100000000000000000000000000000000000000000000000000000000600052601160045260246000fd5b6000610e2682610abd565b9150610e3183610abd565b9250827fffffffffffffffffffffffffffffffffffffffffffffffffffffffffffffffff03821115610e6657610e65610dec565b5b828201905092915050565b7f53616c65204e6f74206163746976650000000000000000000000000000000000600082015250565b6000610ea7600f83610d6f565b9150610eb282610e71565b602082019050919050565b60006020820190508181036000830152610ed681610e9a565b9050919050565b6000610ee882610abd565b9150610ef383610abd565b9250817fffffffffffffffffffffffffffffffffffffffffffffffffffffffffffffffff0483118215151615610f2c57610f2b610dec565b5b828202905092915050565b6000606082019050610f4c6000830186610bf9565b610f596020830185610bf9565b610f666040830184610ac7565b949350505050565b60008115159050919050565b610f8381610f6e565b8114610f8e57600080fd5b50565b600081519050610fa081610f7a565b92915050565b600060208284031215610fbc57610fbb610af1565b5b6000610fca84828501610f91565b91505092915050565b7f53616c653a20546f6b656e5472616e73666572206661696c6564000000000000600082015250565b6000611009601a83610d6f565b915061101482610fd3565b602082019050919050565b6000602082019050818103600083015261103881610ffc565b9050919050565b7f4f776e61626c653a206e6577206f776e657220697320746865207a65726f206160008201527f6464726573730000000000000000000000000000000000000000000000000000602082015250565b600061109b602683610d6f565b91506110a68261103f565b604082019050919050565b600060208201905081810360008301526110ca8161108e565b905091905056fea2646970667358221220e02f7a7fd697bb42f2e5ec59bf54f39b693fe2b19a06abdf2428c301e2d453c864736f6c634300080d0033",
  "immutableReferences": {},
  "source": "//SPDX-License-Identifier: MIT\r\npragma solidity 0.8.13;\r\n\r\nimport \"@openzeppelin/contracts/token/ERC20/IERC20.sol\";\r\nimport \"@openzeppelin/contracts/access/Ownable.sol\";\r\nimport \"@openzeppelin/contracts/utils/Context.sol\";\r\n\r\n/**\r\n * @dev Token Buy contract\r\n *\r\n */\r\n\r\ncontract LufthansaFinanceICO is Context, Ownable {\r\n    enum State {\r\n        ToStart,\r\n        Phase1,\r\n        Phase2,\r\n        Phase3,\r\n        Ended\r\n    }\r\n    IERC20 token;\r\n\r\n    uint256 public startUTCDateTime;\r\n    uint256 public endUTCDateTime;\r\n    uint256 public phaseCap;\r\n    uint256 public rate; // tokens per bnb\r\n    uint256 public saleCount; // total token sold\r\n    uint256 public raisedAmount; // in wei\r\n    State public phase;\r\n\r\n    constructor(address _token, uint256 _rate) {\r\n        token = IERC20(_token);\r\n        rate = _rate;\r\n        phase = State.ToStart;\r\n    }\r\n\r\n    modifier activeSale() {\r\n        require(\r\n            (phase != State.ToStart || phase != State.Ended),\r\n            \"Sale Not active\"\r\n        );\r\n        _;\r\n    }\r\n\r\n    /**\r\n     * BoughtTokens\r\n     * @dev Log tokens bought on the blockchain\r\n     */\r\n    event BoughtTokens(address indexed buyer, uint256 value);\r\n\r\n    /**\r\n     * buyTokens\r\n     * @dev function that sells owner approved tokens\r\n     */\r\n    function buyTokens() public payable activeSale {\r\n        uint256 weiAmount = msg.value;\r\n\r\n        uint256 tokens = weiAmount * rate;\r\n\r\n        emit BoughtTokens(_msgSender(), tokens);\r\n\r\n        raisedAmount = raisedAmount + msg.value;\r\n\r\n        require(\r\n            token.transferFrom(owner(), _msgSender(), tokens),\r\n            \"Sale: TokenTransfer failed\"\r\n        );\r\n\r\n        payable(owner()).transfer(msg.value);\r\n    }\r\n\r\n    /**\r\n     * setRate\r\n     * @dev function that sets rate\r\n     */\r\n    function setRate(uint256 _rate) public onlyOwner {\r\n        rate = _rate;\r\n    }\r\n\r\n    /**\r\n     * receive\r\n     * @dev to enable contract to receive bnb\r\n     *\r\n     */\r\n    receive() external payable {}\r\n\r\n    /**\r\n     * ownerWithdrawBNB\r\n     * @dev owner will be able to withdraw any remaining bnb\r\n     *\r\n     */\r\n    function ownerWithdrawBNB() public onlyOwner {\r\n        uint256 balance = address(this).balance;\r\n        payable(_msgSender()).transfer(balance);\r\n    }\r\n\r\n    /**\r\n     * @dev Setup Sale from smart contract.\r\n     */\r\n\r\n    function addPhaseSetting(\r\n        uint256 _rate,\r\n        uint256 _phaseCap,\r\n        State _state\r\n    ) public onlyOwner {\r\n        phase = State(_state);\r\n        startUTCDateTime = block.timestamp;\r\n        endUTCDateTime = block.timestamp + 864000;\r\n        rate = _rate;\r\n        phaseCap = _phaseCap;\r\n    }\r\n\r\n    /**\r\n     * @dev View Setuped Sale from smart contract.\r\n     */\r\n\r\n    function viewPhaseSettings()\r\n        public\r\n        view\r\n        returns (\r\n            uint256 _startUTCDateTime,\r\n            uint256 _endUTCDateTime,\r\n            uint256 _phaseCap,\r\n            uint256 _saleCount,\r\n            uint256 _rate,\r\n            State _phase\r\n        )\r\n    {\r\n        return (\r\n            startUTCDateTime,\r\n            endUTCDateTime,\r\n            phaseCap,\r\n            saleCount,\r\n            rate,\r\n            phase\r\n        );\r\n    }\r\n}\r\n",
  "sourcePath": "C:\\Users\\Sudeep\\Desktop\\personal\\lufthansa finance\\contracts\\LufthansaFinanceICO.sol",
  "compiler": {
    "name": "solc",
    "version": "0.8.13+commit.abaa5c0e.Emscripten.clang"
  },
  "schemaVersion": "3.4.2",
  "updatedAt": "2022-04-29T11:58:04.861Z",
  "networkType": "ethereum",
  "devdoc": {
    "details": "Token Buy contract",
    "events": {
      "BoughtTokens(address,uint256)": {
        "details": "Log tokens bought on the blockchain"
      }
    },
    "kind": "dev",
    "methods": {
      "addPhaseSetting(uint256,uint256,uint8)": {
        "details": "Setup Sale from smart contract."
      },
      "buyTokens()": {
        "details": "function that sells owner approved tokens"
      },
      "owner()": {
        "details": "Returns the address of the current owner."
      },
      "ownerWithdrawBNB()": {
        "details": "owner will be able to withdraw any remaining bnb"
      },
      "renounceOwnership()": {
        "details": "Leaves the contract without owner. It will not be possible to call `onlyOwner` functions anymore. Can only be called by the current owner. NOTE: Renouncing ownership will leave the contract without an owner, thereby removing any functionality that is only available to the owner."
      },
      "setRate(uint256)": {
        "details": "function that sets rate"
      },
      "transferOwnership(address)": {
        "details": "Transfers ownership of the contract to a new account (`newOwner`). Can only be called by the current owner."
      },
      "viewPhaseSettings()": {
        "details": "View Setuped Sale from smart contract."
      }
    },
    "version": 1
  },
  "userdoc": {
    "events": {
      "BoughtTokens(address,uint256)": {
        "notice": "BoughtTokens"
      }
    },
    "kind": "user",
    "methods": {
      "buyTokens()": {
        "notice": "buyTokens"
      },
      "ownerWithdrawBNB()": {
        "notice": "ownerWithdrawBNB"
      },
      "setRate(uint256)": {
        "notice": "setRate"
      }
    },
    "version": 1
  }
}