{
  "contractName": "LufthansaFinanceToken",
  "abi": [
    {
      "inputs": [
        {
          "internalType": "string",
          "name": "name_",
          "type": "string"
        },
        {
          "internalType": "string",
          "name": "symbol_",
          "type": "string"
        },
        {
          "internalType": "uint256",
          "name": "initialSupply",
          "type": "uint256"
        },
        {
          "internalType": "address",
          "name": "ownerAddress",
          "type": "address"
        }
      ],
      "stateMutability": "nonpayable",
      "type": "constructor"
    },
    {
      "anonymous": false,
      "inputs": [
        {
          "indexed": true,
          "internalType": "address",
          "name": "owner",
          "type": "address"
        },
        {
          "indexed": true,
          "internalType": "address",
          "name": "spender",
          "type": "address"
        },
        {
          "indexed": false,
          "internalType": "uint256",
          "name": "value",
          "type": "uint256"
        }
      ],
      "name": "Approval",
      "type": "event"
    },
    {
      "anonymous": false,
      "inputs": [
        {
          "indexed": true,
          "internalType": "address",
          "name": "previousOwner",
          "type": "address"
        },
        {
          "indexed": true,
          "internalType": "address",
          "name": "newOwner",
          "type": "address"
        }
      ],
      "name": "OwnershipTransferred",
      "type": "event"
    },
    {
      "anonymous": false,
      "inputs": [
        {
          "indexed": false,
          "internalType": "address",
          "name": "account",
          "type": "address"
        }
      ],
      "name": "Paused",
      "type": "event"
    },
    {
      "anonymous": false,
      "inputs": [
        {
          "indexed": true,
          "internalType": "address",
          "name": "from",
          "type": "address"
        },
        {
          "indexed": true,
          "internalType": "address",
          "name": "to",
          "type": "address"
        },
        {
          "indexed": false,
          "internalType": "uint256",
          "name": "value",
          "type": "uint256"
        }
      ],
      "name": "Transfer",
      "type": "event"
    },
    {
      "anonymous": false,
      "inputs": [
        {
          "indexed": false,
          "internalType": "address",
          "name": "account",
          "type": "address"
        }
      ],
      "name": "Unpaused",
      "type": "event"
    },
    {
      "anonymous": false,
      "inputs": [
        {
          "indexed": true,
          "internalType": "address",
          "name": "from",
          "type": "address"
        },
        {
          "indexed": true,
          "internalType": "address",
          "name": "to",
          "type": "address"
        },
        {
          "indexed": false,
          "internalType": "uint256",
          "name": "value",
          "type": "uint256"
        }
      ],
      "name": "VestedTransfer",
      "type": "event"
    },
    {
      "anonymous": false,
      "inputs": [
        {
          "indexed": false,
          "internalType": "address",
          "name": "beneficiary",
          "type": "address"
        },
        {
          "indexed": false,
          "internalType": "uint256",
          "name": "value",
          "type": "uint256"
        }
      ],
      "name": "VestedWithdraw",
      "type": "event"
    },
    {
      "inputs": [],
      "name": "owner",
      "outputs": [
        {
          "internalType": "address",
          "name": "",
          "type": "address"
        }
      ],
      "stateMutability": "view",
      "type": "function",
      "constant": true
    },
    {
      "inputs": [],
      "name": "paused",
      "outputs": [
        {
          "internalType": "bool",
          "name": "",
          "type": "bool"
        }
      ],
      "stateMutability": "view",
      "type": "function",
      "constant": true
    },
    {
      "inputs": [],
      "name": "renounceOwnership",
      "outputs": [],
      "stateMutability": "nonpayable",
      "type": "function"
    },
    {
      "inputs": [
        {
          "internalType": "address",
          "name": "newOwner",
          "type": "address"
        }
      ],
      "name": "transferOwnership",
      "outputs": [],
      "stateMutability": "nonpayable",
      "type": "function"
    },
    {
      "inputs": [],
      "name": "name",
      "outputs": [
        {
          "internalType": "string",
          "name": "",
          "type": "string"
        }
      ],
      "stateMutability": "view",
      "type": "function",
      "constant": true
    },
    {
      "inputs": [],
      "name": "symbol",
      "outputs": [
        {
          "internalType": "string",
          "name": "",
          "type": "string"
        }
      ],
      "stateMutability": "view",
      "type": "function",
      "constant": true
    },
    {
      "inputs": [],
      "name": "decimals",
      "outputs": [
        {
          "internalType": "uint8",
          "name": "",
          "type": "uint8"
        }
      ],
      "stateMutability": "view",
      "type": "function",
      "constant": true
    },
    {
      "inputs": [],
      "name": "totalSupply",
      "outputs": [
        {
          "internalType": "uint256",
          "name": "",
          "type": "uint256"
        }
      ],
      "stateMutability": "view",
      "type": "function",
      "constant": true
    },
    {
      "inputs": [
        {
          "internalType": "address",
          "name": "account",
          "type": "address"
        }
      ],
      "name": "balanceOf",
      "outputs": [
        {
          "internalType": "uint256",
          "name": "",
          "type": "uint256"
        }
      ],
      "stateMutability": "view",
      "type": "function",
      "constant": true
    },
    {
      "inputs": [
        {
          "internalType": "address",
          "name": "recipient",
          "type": "address"
        },
        {
          "internalType": "uint256",
          "name": "amount",
          "type": "uint256"
        }
      ],
      "name": "transfer",
      "outputs": [
        {
          "internalType": "bool",
          "name": "",
          "type": "bool"
        }
      ],
      "stateMutability": "nonpayable",
      "type": "function"
    },
    {
      "inputs": [
        {
          "internalType": "address",
          "name": "owner",
          "type": "address"
        },
        {
          "internalType": "address",
          "name": "spender",
          "type": "address"
        }
      ],
      "name": "allowance",
      "outputs": [
        {
          "internalType": "uint256",
          "name": "",
          "type": "uint256"
        }
      ],
      "stateMutability": "view",
      "type": "function",
      "constant": true
    },
    {
      "inputs": [
        {
          "internalType": "address",
          "name": "spender",
          "type": "address"
        },
        {
          "internalType": "uint256",
          "name": "amount",
          "type": "uint256"
        }
      ],
      "name": "approve",
      "outputs": [
        {
          "internalType": "bool",
          "name": "",
          "type": "bool"
        }
      ],
      "stateMutability": "nonpayable",
      "type": "function"
    },
    {
      "inputs": [
        {
          "internalType": "address",
          "name": "sender",
          "type": "address"
        },
        {
          "internalType": "address",
          "name": "recipient",
          "type": "address"
        },
        {
          "internalType": "uint256",
          "name": "amount",
          "type": "uint256"
        }
      ],
      "name": "transferFrom",
      "outputs": [
        {
          "internalType": "bool",
          "name": "",
          "type": "bool"
        }
      ],
      "stateMutability": "nonpayable",
      "type": "function"
    },
    {
      "inputs": [
        {
          "internalType": "address",
          "name": "spender",
          "type": "address"
        },
        {
          "internalType": "uint256",
          "name": "addedValue",
          "type": "uint256"
        }
      ],
      "name": "increaseAllowance",
      "outputs": [
        {
          "internalType": "bool",
          "name": "",
          "type": "bool"
        }
      ],
      "stateMutability": "nonpayable",
      "type": "function"
    },
    {
      "inputs": [
        {
          "internalType": "address",
          "name": "spender",
          "type": "address"
        },
        {
          "internalType": "uint256",
          "name": "subtractedValue",
          "type": "uint256"
        }
      ],
      "name": "decreaseAllowance",
      "outputs": [
        {
          "internalType": "bool",
          "name": "",
          "type": "bool"
        }
      ],
      "stateMutability": "nonpayable",
      "type": "function"
    },
    {
      "inputs": [],
      "name": "pause",
      "outputs": [],
      "stateMutability": "nonpayable",
      "type": "function"
    },
    {
      "inputs": [],
      "name": "unpause",
      "outputs": [],
      "stateMutability": "nonpayable",
      "type": "function"
    },
    {
      "inputs": [
        {
          "internalType": "address",
          "name": "beneficiary",
          "type": "address"
        },
        {
          "internalType": "uint256",
          "name": "lockedUpto",
          "type": "uint256"
        },
        {
          "internalType": "uint256",
          "name": "amount",
          "type": "uint256"
        }
      ],
      "name": "vestingTransfer",
      "outputs": [
        {
          "internalType": "bool",
          "name": "",
          "type": "bool"
        }
      ],
      "stateMutability": "nonpayable",
      "type": "function"
    },
    {
      "inputs": [
        {
          "internalType": "address",
          "name": "beneficiary",
          "type": "address"
        }
      ],
      "name": "WithdrawVestedTokens",
      "outputs": [
        {
          "internalType": "bool",
          "name": "",
          "type": "bool"
        }
      ],
      "stateMutability": "nonpayable",
      "type": "function"
    },
    {
      "inputs": [
        {
          "internalType": "address",
          "name": "beneficiary",
          "type": "address"
        }
      ],
      "name": "vestedBalanceOf",
      "outputs": [
        {
          "internalType": "uint256",
          "name": "",
          "type": "uint256"
        }
      ],
      "stateMutability": "view",
      "type": "function",
      "constant": true
    },
    {
      "inputs": [
        {
          "internalType": "uint256",
          "name": "amount",
          "type": "uint256"
        }
      ],
      "name": "burn",
      "outputs": [],
      "stateMutability": "nonpayable",
      "type": "function"
    }
  ],
  "bytecode": "0x60806040523480156200001157600080fd5b506040516200324c3803806200324c83398181016040528101906200003791906200065a565b60008060006101000a81548160ff0219169083151502179055506200007162000065620000d460201b60201c565b620000dc60201b60201c565b8360059080519060200190620000899291906200036d565b508260069080519060200190620000a29291906200036d565b50620000ca81670de0b6b3a764000084620000be919062000739565b620001a160201b60201c565b50505050620009a4565b600033905090565b60008060019054906101000a900473ffffffffffffffffffffffffffffffffffffffff16905081600060016101000a81548173ffffffffffffffffffffffffffffffffffffffff021916908373ffffffffffffffffffffffffffffffffffffffff1602179055508173ffffffffffffffffffffffffffffffffffffffff168173ffffffffffffffffffffffffffffffffffffffff167f8be0079c531659141344cd1fd0a4f28419497f9722a3daafe3b4186f6b6457e060405160405180910390a35050565b600073ffffffffffffffffffffffffffffffffffffffff168273ffffffffffffffffffffffffffffffffffffffff160362000213576040517f08c379a00000000000000000000000000000000000000000000000000000000081526004016200020a90620007fb565b60405180910390fd5b620002236200030260201b60201c565b80600460008282546200023791906200081d565b9250508190555080600160008473ffffffffffffffffffffffffffffffffffffffff1673ffffffffffffffffffffffffffffffffffffffff16815260200190815260200160002060008282546200028f91906200081d565b925050819055508173ffffffffffffffffffffffffffffffffffffffff16600073ffffffffffffffffffffffffffffffffffffffff167fddf252ad1be2c89b69c2b068fc378daa952ba7f163c4a11628f55a4df523b3ef83604051620002f691906200088b565b60405180910390a35050565b620003126200035760201b60201c565b1562000355576040517f08c379a00000000000000000000000000000000000000000000000000000000081526004016200034c906200091e565b60405180910390fd5b565b60008060009054906101000a900460ff16905090565b8280546200037b906200096f565b90600052602060002090601f0160209004810192826200039f5760008555620003eb565b82601f10620003ba57805160ff1916838001178555620003eb565b82800160010185558215620003eb579182015b82811115620003ea578251825591602001919060010190620003cd565b5b509050620003fa9190620003fe565b5090565b5b8082111562000419576000816000905550600101620003ff565b5090565b6000604051905090565b600080fd5b600080fd5b600080fd5b600080fd5b6000601f19601f8301169050919050565b7f4e487b7100000000000000000000000000000000000000000000000000000000600052604160045260246000fd5b62000486826200043b565b810181811067ffffffffffffffff82111715620004a857620004a76200044c565b5b80604052505050565b6000620004bd6200041d565b9050620004cb82826200047b565b919050565b600067ffffffffffffffff821115620004ee57620004ed6200044c565b5b620004f9826200043b565b9050602081019050919050565b60005b838110156200052657808201518184015260208101905062000509565b8381111562000536576000848401525b50505050565b6000620005536200054d84620004d0565b620004b1565b90508281526020810184848401111562000572576200057162000436565b5b6200057f84828562000506565b509392505050565b600082601f8301126200059f576200059e62000431565b5b8151620005b18482602086016200053c565b91505092915050565b6000819050919050565b620005cf81620005ba565b8114620005db57600080fd5b50565b600081519050620005ef81620005c4565b92915050565b600073ffffffffffffffffffffffffffffffffffffffff82169050919050565b60006200062282620005f5565b9050919050565b620006348162000615565b81146200064057600080fd5b50565b600081519050620006548162000629565b92915050565b6000806000806080858703121562000677576200067662000427565b5b600085015167ffffffffffffffff8111156200069857620006976200042c565b5b620006a68782880162000587565b945050602085015167ffffffffffffffff811115620006ca57620006c96200042c565b5b620006d88782880162000587565b9350506040620006eb87828801620005de565b9250506060620006fe8782880162000643565b91505092959194509250565b7f4e487b7100000000000000000000000000000000000000000000000000000000600052601160045260246000fd5b60006200074682620005ba565b91506200075383620005ba565b9250817fffffffffffffffffffffffffffffffffffffffffffffffffffffffffffffffff04831182151516156200078f576200078e6200070a565b5b828202905092915050565b600082825260208201905092915050565b7f45524332303a206d696e7420746f20746865207a65726f206164647265737300600082015250565b6000620007e3601f836200079a565b9150620007f082620007ab565b602082019050919050565b600060208201905081810360008301526200081681620007d4565b9050919050565b60006200082a82620005ba565b91506200083783620005ba565b9250827fffffffffffffffffffffffffffffffffffffffffffffffffffffffffffffffff038211156200086f576200086e6200070a565b5b828201905092915050565b6200088581620005ba565b82525050565b6000602082019050620008a260008301846200087a565b92915050565b7f45524332305061757361626c653a20746f6b656e207472616e7366657220776860008201527f696c652070617573656400000000000000000000000000000000000000000000602082015250565b600062000906602a836200079a565b91506200091382620008a8565b604082019050919050565b600060208201905081810360008301526200093981620008f7565b9050919050565b7f4e487b7100000000000000000000000000000000000000000000000000000000600052602260045260246000fd5b600060028204905060018216806200098857607f821691505b6020821081036200099e576200099d62000940565b5b50919050565b61289880620009b46000396000f3fe608060405234801561001057600080fd5b50600436106101365760003560e01c806342966c68116100b85780638da5cb5b1161007c5780638da5cb5b1461033d57806395d89b411461035b578063a457c2d714610379578063a9059cbb146103a9578063dd62ed3e146103d9578063f2fde38b1461040957610136565b806342966c68146102bf5780635c975abb146102db57806370a08231146102f9578063715018a6146103295780638456cb591461033357610136565b806318160ddd116100ff57806318160ddd1461021957806323b872dd14610237578063313ce5671461026757806339509351146102855780633f4ba83a146102b557610136565b80625c31651461013b57806303ed565d1461016b57806306fdde031461019b578063095ea7b3146101b95780630e2d1a2a146101e9575b600080fd5b61015560048036038101906101509190611b20565b610425565b6040516101629190611b68565b60405180910390f35b61018560048036038101906101809190611bb9565b610673565b6040516101929190611b68565b60405180910390f35b6101a3610a10565b6040516101b09190611ca5565b60405180910390f35b6101d360048036038101906101ce9190611cc7565b610aa2565b6040516101e09190611b68565b60405180910390f35b61020360048036038101906101fe9190611b20565b610ac0565b6040516102109190611d16565b60405180910390f35b610221610b4b565b60405161022e9190611d16565b60405180910390f35b610251600480360381019061024c9190611d31565b610b55565b60405161025e9190611b68565b60405180910390f35b61026f610c4d565b60405161027c9190611da0565b60405180910390f35b61029f600480360381019061029a9190611cc7565b610c56565b6040516102ac9190611b68565b60405180910390f35b6102bd610d02565b005b6102d960048036038101906102d49190611dbb565b610d88565b005b6102e3610d9c565b6040516102f09190611b68565b60405180910390f35b610313600480360381019061030e9190611b20565b610db2565b6040516103209190611d16565b60405180910390f35b610331610e0e565b005b61033b610e96565b005b610345610f1c565b6040516103529190611df7565b60405180910390f35b610363610f45565b6040516103709190611ca5565b60405180910390f35b610393600480360381019061038e9190611cc7565b610fd7565b6040516103a09190611b68565b60405180910390f35b6103c360048036038101906103be9190611cc7565b6110c2565b6040516103d09190611b68565b60405180910390f35b6103f360048036038101906103ee9190611e12565b6110e0565b6040516104009190611d16565b60405180910390f35b610423600480360381019061041e9190611b20565b611167565b005b600080600360008473ffffffffffffffffffffffffffffffffffffffff1673ffffffffffffffffffffffffffffffffffffffff1681526020019081526020016000206040518060600160405290816000820160009054906101000a900460ff161515151581526020016001820154815260200160028201548152505090506001151581600001511515146104ee576040517f08c379a00000000000000000000000000000000000000000000000000000000081526004016104e590611e9e565b60405180910390fd5b80602001514211610534576040517f08c379a000000000000000000000000000000000000000000000000000000000815260040161052b90611f0a565b60405180910390fd5b8060400151600160008573ffffffffffffffffffffffffffffffffffffffff1673ffffffffffffffffffffffffffffffffffffffff168152602001908152602001600020546105839190611f59565b600160008573ffffffffffffffffffffffffffffffffffffffff1673ffffffffffffffffffffffffffffffffffffffff168152602001908152602001600020819055507f113643335e20ddd4dfb8747e4aed0a113ce28592cea2d9375fa75043d4427aa08382604001516040516105fb929190611faf565b60405180910390a1600360008473ffffffffffffffffffffffffffffffffffffffff1673ffffffffffffffffffffffffffffffffffffffff168152602001908152602001600020600080820160006101000a81549060ff02191690556001820160009055600282016000905550506001915050919050565b600061067d61125e565b73ffffffffffffffffffffffffffffffffffffffff1661069b610f1c565b73ffffffffffffffffffffffffffffffffffffffff16146106f1576040517f08c379a00000000000000000000000000000000000000000000000000000000081526004016106e890612024565b60405180910390fd5b600073ffffffffffffffffffffffffffffffffffffffff168473ffffffffffffffffffffffffffffffffffffffff1603610760576040517f08c379a0000000000000000000000000000000000000000000000000000000008152600401610757906120b6565b60405180910390fd5b6000600360008673ffffffffffffffffffffffffffffffffffffffff1673ffffffffffffffffffffffffffffffffffffffff1681526020019081526020016000206040518060600160405290816000820160009054906101000a900460ff16151515158152602001600182015481526020016002820154815250509050600015158160000151151514610828576040517f08c379a000000000000000000000000000000000000000000000000000000000815260040161081f90612122565b60405180910390fd5b60006001600061083661125e565b73ffffffffffffffffffffffffffffffffffffffff1673ffffffffffffffffffffffffffffffffffffffff168152602001908152602001600020549050838110156108b6576040517f08c379a00000000000000000000000000000000000000000000000000000000081526004016108ad906121b4565b60405180910390fd5b838103600160006108c561125e565b73ffffffffffffffffffffffffffffffffffffffff1673ffffffffffffffffffffffffffffffffffffffff16815260200190815260200160002081905550604051806060016040528060011515815260200186815260200185815250600360008873ffffffffffffffffffffffffffffffffffffffff1673ffffffffffffffffffffffffffffffffffffffff16815260200190815260200160002060008201518160000160006101000a81548160ff02191690831515021790555060208201518160010155604082015181600201559050508573ffffffffffffffffffffffffffffffffffffffff166109b661125e565b73ffffffffffffffffffffffffffffffffffffffff167fc31ace0868a8985cc36dc6c582f7be5761a51003b15792bd96886240cc4a4633866040516109fb9190611d16565b60405180910390a36001925050509392505050565b606060058054610a1f90612203565b80601f0160208091040260200160405190810160405280929190818152602001828054610a4b90612203565b8015610a985780601f10610a6d57610100808354040283529160200191610a98565b820191906000526020600020905b815481529060010190602001808311610a7b57829003601f168201915b5050505050905090565b6000610ab6610aaf61125e565b8484611266565b6001905092915050565b600080600360008473ffffffffffffffffffffffffffffffffffffffff1673ffffffffffffffffffffffffffffffffffffffff1681526020019081526020016000206040518060600160405290816000820160009054906101000a900460ff161515151581526020016001820154815260200160028201548152505090508060400151915050919050565b6000600454905090565b6000610b6284848461142f565b6000600260008673ffffffffffffffffffffffffffffffffffffffff1673ffffffffffffffffffffffffffffffffffffffff1681526020019081526020016000206000610bad61125e565b73ffffffffffffffffffffffffffffffffffffffff1673ffffffffffffffffffffffffffffffffffffffff16815260200190815260200160002054905082811015610c2d576040517f08c379a0000000000000000000000000000000000000000000000000000000008152600401610c24906122a6565b60405180910390fd5b610c4185610c3961125e565b858403611266565b60019150509392505050565b60006012905090565b6000610cf8610c6361125e565b848460026000610c7161125e565b73ffffffffffffffffffffffffffffffffffffffff1673ffffffffffffffffffffffffffffffffffffffff16815260200190815260200160002060008873ffffffffffffffffffffffffffffffffffffffff1673ffffffffffffffffffffffffffffffffffffffff16815260200190815260200160002054610cf39190611f59565b611266565b6001905092915050565b610d0a61125e565b73ffffffffffffffffffffffffffffffffffffffff16610d28610f1c565b73ffffffffffffffffffffffffffffffffffffffff1614610d7e576040517f08c379a0000000000000000000000000000000000000000000000000000000008152600401610d7590612024565b60405180910390fd5b610d866116a3565b565b610d99610d9361125e565b82611744565b50565b60008060009054906101000a900460ff16905090565b6000610dbd82610ac0565b600160008473ffffffffffffffffffffffffffffffffffffffff1673ffffffffffffffffffffffffffffffffffffffff16815260200190815260200160002054610e079190611f59565b9050919050565b610e1661125e565b73ffffffffffffffffffffffffffffffffffffffff16610e34610f1c565b73ffffffffffffffffffffffffffffffffffffffff1614610e8a576040517f08c379a0000000000000000000000000000000000000000000000000000000008152600401610e8190612024565b60405180910390fd5b610e94600061190c565b565b610e9e61125e565b73ffffffffffffffffffffffffffffffffffffffff16610ebc610f1c565b73ffffffffffffffffffffffffffffffffffffffff1614610f12576040517f08c379a0000000000000000000000000000000000000000000000000000000008152600401610f0990612024565b60405180910390fd5b610f1a6119d1565b565b60008060019054906101000a900473ffffffffffffffffffffffffffffffffffffffff16905090565b606060068054610f5490612203565b80601f0160208091040260200160405190810160405280929190818152602001828054610f8090612203565b8015610fcd5780601f10610fa257610100808354040283529160200191610fcd565b820191906000526020600020905b815481529060010190602001808311610fb057829003601f168201915b5050505050905090565b60008060026000610fe661125e565b73ffffffffffffffffffffffffffffffffffffffff1673ffffffffffffffffffffffffffffffffffffffff16815260200190815260200160002060008573ffffffffffffffffffffffffffffffffffffffff1673ffffffffffffffffffffffffffffffffffffffff168152602001908152602001600020549050828110156110a3576040517f08c379a000000000000000000000000000000000000000000000000000000000815260040161109a90612338565b60405180910390fd5b6110b76110ae61125e565b85858403611266565b600191505092915050565b60006110d66110cf61125e565b848461142f565b6001905092915050565b6000600260008473ffffffffffffffffffffffffffffffffffffffff1673ffffffffffffffffffffffffffffffffffffffff16815260200190815260200160002060008373ffffffffffffffffffffffffffffffffffffffff1673ffffffffffffffffffffffffffffffffffffffff16815260200190815260200160002054905092915050565b61116f61125e565b73ffffffffffffffffffffffffffffffffffffffff1661118d610f1c565b73ffffffffffffffffffffffffffffffffffffffff16146111e3576040517f08c379a00000000000000000000000000000000000000000000000000000000081526004016111da90612024565b60405180910390fd5b600073ffffffffffffffffffffffffffffffffffffffff168173ffffffffffffffffffffffffffffffffffffffff1603611252576040517f08c379a0000000000000000000000000000000000000000000000000000000008152600401611249906123ca565b60405180910390fd5b61125b8161190c565b50565b600033905090565b600073ffffffffffffffffffffffffffffffffffffffff168373ffffffffffffffffffffffffffffffffffffffff16036112d5576040517f08c379a00000000000000000000000000000000000000000000000000000000081526004016112cc9061245c565b60405180910390fd5b600073ffffffffffffffffffffffffffffffffffffffff168273ffffffffffffffffffffffffffffffffffffffff1603611344576040517f08c379a000000000000000000000000000000000000000000000000000000000815260040161133b906124ee565b60405180910390fd5b80600260008573ffffffffffffffffffffffffffffffffffffffff1673ffffffffffffffffffffffffffffffffffffffff16815260200190815260200160002060008473ffffffffffffffffffffffffffffffffffffffff1673ffffffffffffffffffffffffffffffffffffffff168152602001908152602001600020819055508173ffffffffffffffffffffffffffffffffffffffff168373ffffffffffffffffffffffffffffffffffffffff167f8c5be1e5ebec7d5bd14f71427d1e84f3dd0314c0f7b2291e5b200ac8c7c3b925836040516114229190611d16565b60405180910390a3505050565b600073ffffffffffffffffffffffffffffffffffffffff168373ffffffffffffffffffffffffffffffffffffffff160361149e576040517f08c379a000000000000000000000000000000000000000000000000000000000815260040161149590612580565b60405180910390fd5b600073ffffffffffffffffffffffffffffffffffffffff168273ffffffffffffffffffffffffffffffffffffffff160361150d576040517f08c379a0000000000000000000000000000000000000000000000000000000008152600401611504906120b6565b60405180910390fd5b611515611a73565b6000600160008573ffffffffffffffffffffffffffffffffffffffff1673ffffffffffffffffffffffffffffffffffffffff1681526020019081526020016000205490508181101561159c576040517f08c379a0000000000000000000000000000000000000000000000000000000008152600401611593906121b4565b60405180910390fd5b818103600160008673ffffffffffffffffffffffffffffffffffffffff1673ffffffffffffffffffffffffffffffffffffffff1681526020019081526020016000208190555081600160008573ffffffffffffffffffffffffffffffffffffffff1673ffffffffffffffffffffffffffffffffffffffff16815260200190815260200160002060008282546116319190611f59565b925050819055508273ffffffffffffffffffffffffffffffffffffffff168473ffffffffffffffffffffffffffffffffffffffff167fddf252ad1be2c89b69c2b068fc378daa952ba7f163c4a11628f55a4df523b3ef846040516116959190611d16565b60405180910390a350505050565b6116ab610d9c565b6116ea576040517f08c379a00000000000000000000000000000000000000000000000000000000081526004016116e1906125ec565b60405180910390fd5b60008060006101000a81548160ff0219169083151502179055507f5db9ee0a495bf2e6ff9c91a7834c1ba4fdd244a5e8aa4e537bd38aeae4b073aa61172d61125e565b60405161173a9190611df7565b60405180910390a1565b600073ffffffffffffffffffffffffffffffffffffffff168273ffffffffffffffffffffffffffffffffffffffff16036117b3576040517f08c379a00000000000000000000000000000000000000000000000000000000081526004016117aa9061267e565b60405180910390fd5b6117bb611a73565b6000600160008473ffffffffffffffffffffffffffffffffffffffff1673ffffffffffffffffffffffffffffffffffffffff16815260200190815260200160002054905081811015611842576040517f08c379a000000000000000000000000000000000000000000000000000000000815260040161183990612710565b60405180910390fd5b818103600160008573ffffffffffffffffffffffffffffffffffffffff1673ffffffffffffffffffffffffffffffffffffffff16815260200190815260200160002081905550816004600082825461189a9190612730565b92505081905550600073ffffffffffffffffffffffffffffffffffffffff168373ffffffffffffffffffffffffffffffffffffffff167fddf252ad1be2c89b69c2b068fc378daa952ba7f163c4a11628f55a4df523b3ef846040516118ff9190611d16565b60405180910390a3505050565b60008060019054906101000a900473ffffffffffffffffffffffffffffffffffffffff16905081600060016101000a81548173ffffffffffffffffffffffffffffffffffffffff021916908373ffffffffffffffffffffffffffffffffffffffff1602179055508173ffffffffffffffffffffffffffffffffffffffff168173ffffffffffffffffffffffffffffffffffffffff167f8be0079c531659141344cd1fd0a4f28419497f9722a3daafe3b4186f6b6457e060405160405180910390a35050565b6119d9610d9c565b15611a19576040517f08c379a0000000000000000000000000000000000000000000000000000000008152600401611a10906127b0565b60405180910390fd5b60016000806101000a81548160ff0219169083151502179055507f62e78cea01bee320cd4e420270b5ea74000d11b0c9f74754ebdbfc544b05a258611a5c61125e565b604051611a699190611df7565b60405180910390a1565b611a7b610d9c565b15611abb576040517f08c379a0000000000000000000000000000000000000000000000000000000008152600401611ab290612842565b60405180910390fd5b565b600080fd5b600073ffffffffffffffffffffffffffffffffffffffff82169050919050565b6000611aed82611ac2565b9050919050565b611afd81611ae2565b8114611b0857600080fd5b50565b600081359050611b1a81611af4565b92915050565b600060208284031215611b3657611b35611abd565b5b6000611b4484828501611b0b565b91505092915050565b60008115159050919050565b611b6281611b4d565b82525050565b6000602082019050611b7d6000830184611b59565b92915050565b6000819050919050565b611b9681611b83565b8114611ba157600080fd5b50565b600081359050611bb381611b8d565b92915050565b600080600060608486031215611bd257611bd1611abd565b5b6000611be086828701611b0b565b9350506020611bf186828701611ba4565b9250506040611c0286828701611ba4565b9150509250925092565b600081519050919050565b600082825260208201905092915050565b60005b83811015611c46578082015181840152602081019050611c2b565b83811115611c55576000848401525b50505050565b6000601f19601f8301169050919050565b6000611c7782611c0c565b611c818185611c17565b9350611c91818560208601611c28565b611c9a81611c5b565b840191505092915050565b60006020820190508181036000830152611cbf8184611c6c565b905092915050565b60008060408385031215611cde57611cdd611abd565b5b6000611cec85828601611b0b565b9250506020611cfd85828601611ba4565b9150509250929050565b611d1081611b83565b82525050565b6000602082019050611d2b6000830184611d07565b92915050565b600080600060608486031215611d4a57611d49611abd565b5b6000611d5886828701611b0b565b9350506020611d6986828701611b0b565b9250506040611d7a86828701611ba4565b9150509250925092565b600060ff82169050919050565b611d9a81611d84565b82525050565b6000602082019050611db56000830184611d91565b92915050565b600060208284031215611dd157611dd0611abd565b5b6000611ddf84828501611ba4565b91505092915050565b611df181611ae2565b82525050565b6000602082019050611e0c6000830184611de8565b92915050565b60008060408385031215611e2957611e28611abd565b5b6000611e3785828601611b0b565b9250506020611e4885828601611b0b565b9150509250929050565b7f4c46413a204e6f2056657374656420746f6b656e730000000000000000000000600082015250565b6000611e88601583611c17565b9150611e9382611e52565b602082019050919050565b60006020820190508181036000830152611eb781611e7b565b9050919050565b7f4c46413a204c6f636b656420546f6b656e730000000000000000000000000000600082015250565b6000611ef4601283611c17565b9150611eff82611ebe565b602082019050919050565b60006020820190508181036000830152611f2381611ee7565b9050919050565b7f4e487b7100000000000000000000000000000000000000000000000000000000600052601160045260246000fd5b6000611f6482611b83565b9150611f6f83611b83565b9250827fffffffffffffffffffffffffffffffffffffffffffffffffffffffffffffffff03821115611fa457611fa3611f2a565b5b828201905092915050565b6000604082019050611fc46000830185611de8565b611fd16020830184611d07565b9392505050565b7f4f776e61626c653a2063616c6c6572206973206e6f7420746865206f776e6572600082015250565b600061200e602083611c17565b915061201982611fd8565b602082019050919050565b6000602082019050818103600083015261203d81612001565b9050919050565b7f45524332303a207472616e7366657220746f20746865207a65726f206164647260008201527f6573730000000000000000000000000000000000000000000000000000000000602082015250565b60006120a0602383611c17565b91506120ab82612044565b604082019050919050565b600060208201905081810360008301526120cf81612093565b9050919050565b7f4c46413a20546f6b656e7320616c726561647920766573746564000000000000600082015250565b600061210c601a83611c17565b9150612117826120d6565b602082019050919050565b6000602082019050818103600083015261213b816120ff565b9050919050565b7f45524332303a207472616e7366657220616d6f756e742065786365656473206260008201527f616c616e63650000000000000000000000000000000000000000000000000000602082015250565b600061219e602683611c17565b91506121a982612142565b604082019050919050565b600060208201905081810360008301526121cd81612191565b9050919050565b7f4e487b7100000000000000000000000000000000000000000000000000000000600052602260045260246000fd5b6000600282049050600182168061221b57607f821691505b60208210810361222e5761222d6121d4565b5b50919050565b7f45524332303a207472616e7366657220616d6f756e742065786365656473206160008201527f6c6c6f77616e6365000000000000000000000000000000000000000000000000602082015250565b6000612290602883611c17565b915061229b82612234565b604082019050919050565b600060208201905081810360008301526122bf81612283565b9050919050565b7f45524332303a2064656372656173656420616c6c6f77616e63652062656c6f7760008201527f207a65726f000000000000000000000000000000000000000000000000000000602082015250565b6000612322602583611c17565b915061232d826122c6565b604082019050919050565b6000602082019050818103600083015261235181612315565b9050919050565b7f4f776e61626c653a206e6577206f776e657220697320746865207a65726f206160008201527f6464726573730000000000000000000000000000000000000000000000000000602082015250565b60006123b4602683611c17565b91506123bf82612358565b604082019050919050565b600060208201905081810360008301526123e3816123a7565b9050919050565b7f45524332303a20617070726f76652066726f6d20746865207a65726f2061646460008201527f7265737300000000000000000000000000000000000000000000000000000000602082015250565b6000612446602483611c17565b9150612451826123ea565b604082019050919050565b6000602082019050818103600083015261247581612439565b9050919050565b7f45524332303a20617070726f766520746f20746865207a65726f20616464726560008201527f7373000000000000000000000000000000000000000000000000000000000000602082015250565b60006124d8602283611c17565b91506124e38261247c565b604082019050919050565b60006020820190508181036000830152612507816124cb565b9050919050565b7f45524332303a207472616e736665722066726f6d20746865207a65726f20616460008201527f6472657373000000000000000000000000000000000000000000000000000000602082015250565b600061256a602583611c17565b91506125758261250e565b604082019050919050565b600060208201905081810360008301526125998161255d565b9050919050565b7f5061757361626c653a206e6f7420706175736564000000000000000000000000600082015250565b60006125d6601483611c17565b91506125e1826125a0565b602082019050919050565b60006020820190508181036000830152612605816125c9565b9050919050565b7f45524332303a206275726e2066726f6d20746865207a65726f2061646472657360008201527f7300000000000000000000000000000000000000000000000000000000000000602082015250565b6000612668602183611c17565b91506126738261260c565b604082019050919050565b600060208201905081810360008301526126978161265b565b9050919050565b7f45524332303a206275726e20616d6f756e7420657863656564732062616c616e60008201527f6365000000000000000000000000000000000000000000000000000000000000602082015250565b60006126fa602283611c17565b91506127058261269e565b604082019050919050565b60006020820190508181036000830152612729816126ed565b9050919050565b600061273b82611b83565b915061274683611b83565b92508282101561275957612758611f2a565b5b828203905092915050565b7f5061757361626c653a2070617573656400000000000000000000000000000000600082015250565b600061279a601083611c17565b91506127a582612764565b602082019050919050565b600060208201905081810360008301526127c98161278d565b9050919050565b7f45524332305061757361626c653a20746f6b656e207472616e7366657220776860008201527f696c652070617573656400000000000000000000000000000000000000000000602082015250565b600061282c602a83611c17565b9150612837826127d0565b604082019050919050565b6000602082019050818103600083015261285b8161281f565b905091905056fea2646970667358221220a6a4d342b2f099bc13bcc825eff59b989ecb7e642cdde4772de5c6f191c7b86b64736f6c634300080d0033",
  "immutableReferences": {},
  "source": "pragma solidity 0.8.13;\r\n\r\n//SPDX-License-Identifier: MIT\r\n\r\nimport \"@openzeppelin/contracts/token/ERC20/IERC20.sol\";\r\nimport \"@openzeppelin/contracts/token/ERC20/extensions/IERC20Metadata.sol\";\r\nimport \"@openzeppelin/contracts/access/Ownable.sol\";\r\nimport \"@openzeppelin/contracts/security/Pausable.sol\";\r\n\r\n/**\r\n * @dev {LufthansaFinanceToken} token, including:\r\n *\r\n *  - Preminted initial supply\r\n *  - Pausable\r\n *  - VestedTokens\r\n *\r\n */\r\ncontract LufthansaFinanceToken is Pausable, Ownable, IERC20, IERC20Metadata {\r\n    struct VestedRecord {\r\n        bool isVested;\r\n        uint256 lockedUpto;\r\n        uint256 amount;\r\n    }\r\n\r\n    mapping(address => uint256) private _balances;\r\n\r\n    mapping(address => mapping(address => uint256)) private _allowances;\r\n\r\n    mapping(address => VestedRecord) private vestedRecords;\r\n\r\n    uint256 private _totalSupply;\r\n    string private _name;\r\n    string private _symbol;\r\n\r\n    /**\r\n     * @dev Emitted when `value` tokens are vested from owner (`from`) to\r\n     * another (`to`).\r\n     *\r\n     */\r\n    event VestedTransfer(\r\n        address indexed from,\r\n        address indexed to,\r\n        uint256 value\r\n    );\r\n\r\n    /**\r\n     * @dev Emitted when `value` tokens are Withdrawn from vested record to\r\n     * another (`beneficiary`).\r\n     *\r\n     */\r\n    event VestedWithdraw(address beneficiary, uint256 value);\r\n\r\n    /**\r\n     *\r\n     * @dev Sets the values for {name} and {symbol}. Mints `initialSupply` amount of token and transfers them to `owner`\r\n     *\r\n     * The default value of {decimals} is 18. To select a different value for\r\n     * {decimals} you should overload it.\r\n     *\r\n     * All two of these values are immutable: they can only be set once during\r\n     * construction.\r\n     */\r\n    constructor(\r\n        string memory name_,\r\n        string memory symbol_,\r\n        uint256 initialSupply,\r\n        address ownerAddress\r\n    ) {\r\n        _name = name_;\r\n        _symbol = symbol_;\r\n\r\n        _mint(ownerAddress, initialSupply * 10**18);\r\n    }\r\n\r\n    /**\r\n     * @dev Returns the name of the token.\r\n     */\r\n    function name() public view virtual override returns (string memory) {\r\n        return _name;\r\n    }\r\n\r\n    /**\r\n     * @dev Returns the symbol of the token, usually a shorter version of the\r\n     * name.\r\n     */\r\n    function symbol() public view virtual override returns (string memory) {\r\n        return _symbol;\r\n    }\r\n\r\n    /**\r\n     * @dev Returns the number of decimals used to get its user representation.\r\n     * For example, if `decimals` equals `2`, a balance of `505` tokens should\r\n     * be displayed to a user as `5.05` (`505 / 10 ** 2`).\r\n     *\r\n     * Tokens usually opt for a value of 18, imitating the relationship between\r\n     * Ether and Wei. This is the value {ERC20} uses, unless this function is\r\n     * overridden;\r\n     *\r\n     * NOTE: This information is only used for _display_ purposes: it in\r\n     * no way affects any of the arithmetic of the contract, including\r\n     * {IERC20-balanceOf} and {IERC20-transfer}.\r\n     */\r\n    function decimals() public view virtual override returns (uint8) {\r\n        return 18;\r\n    }\r\n\r\n    /**\r\n     * @dev See {IERC20-totalSupply}.\r\n     */\r\n    function totalSupply() public view virtual override returns (uint256) {\r\n        return _totalSupply;\r\n    }\r\n\r\n    /**\r\n     * @dev See {IERC20-balanceOf}.\r\n     */\r\n    function balanceOf(address account)\r\n        public\r\n        view\r\n        virtual\r\n        override\r\n        returns (uint256)\r\n    {\r\n        return _balances[account] + vestedBalanceOf(account);\r\n    }\r\n\r\n    /**\r\n     * @dev See {IERC20-transfer}.\r\n     *\r\n     * Requirements:\r\n     *\r\n     * - `recipient` cannot be the zero address.\r\n     * - the caller must have a balance of at least `amount`.\r\n     */\r\n    function transfer(address recipient, uint256 amount)\r\n        public\r\n        virtual\r\n        override\r\n        returns (bool)\r\n    {\r\n        _transfer(_msgSender(), recipient, amount);\r\n        return true;\r\n    }\r\n\r\n    /**\r\n     * @dev See {IERC20-allowance}.\r\n     */\r\n    function allowance(address owner, address spender)\r\n        public\r\n        view\r\n        virtual\r\n        override\r\n        returns (uint256)\r\n    {\r\n        return _allowances[owner][spender];\r\n    }\r\n\r\n    /**\r\n     * @dev See {IERC20-approve}.\r\n     *\r\n     * Requirements:\r\n     *\r\n     * - `spender` cannot be the zero address.\r\n     */\r\n    function approve(address spender, uint256 amount)\r\n        public\r\n        virtual\r\n        override\r\n        returns (bool)\r\n    {\r\n        _approve(_msgSender(), spender, amount);\r\n        return true;\r\n    }\r\n\r\n    /**\r\n     * @dev See {IERC20-transferFrom}.\r\n     *\r\n     * Emits an {Approval} event indicating the updated allowance. This is not\r\n     * required by the EIP. See the note at the beginning of {ERC20}.\r\n     *\r\n     * Requirements:\r\n     *\r\n     * - `sender` and `recipient` cannot be the zero address.\r\n     * - `sender` must have a balance of at least `amount`.\r\n     * - the caller must have allowance for ``sender``'s tokens of at least\r\n     * `amount`.\r\n     */\r\n    function transferFrom(\r\n        address sender,\r\n        address recipient,\r\n        uint256 amount\r\n    ) public virtual override returns (bool) {\r\n        _transfer(sender, recipient, amount);\r\n\r\n        uint256 currentAllowance = _allowances[sender][_msgSender()];\r\n        require(\r\n            currentAllowance >= amount,\r\n            \"ERC20: transfer amount exceeds allowance\"\r\n        );\r\n        unchecked {\r\n            _approve(sender, _msgSender(), currentAllowance - amount);\r\n        }\r\n\r\n        return true;\r\n    }\r\n\r\n    /**\r\n     * @dev Atomically increases the allowance granted to `spender` by the caller.\r\n     *\r\n     * This is an alternative to {approve} that can be used as a mitigation for\r\n     * problems described in {IERC20-approve}.\r\n     *\r\n     * Emits an {Approval} event indicating the updated allowance.\r\n     *\r\n     * Requirements:\r\n     *\r\n     * - `spender` cannot be the zero address.\r\n     */\r\n    function increaseAllowance(address spender, uint256 addedValue)\r\n        public\r\n        virtual\r\n        returns (bool)\r\n    {\r\n        _approve(\r\n            _msgSender(),\r\n            spender,\r\n            _allowances[_msgSender()][spender] + addedValue\r\n        );\r\n        return true;\r\n    }\r\n\r\n    /**\r\n     * @dev Atomically decreases the allowance granted to `spender` by the caller.\r\n     *\r\n     * This is an alternative to {approve} that can be used as a mitigation for\r\n     * problems described in {IERC20-approve}.\r\n     *\r\n     * Emits an {Approval} event indicating the updated allowance.\r\n     *\r\n     * Requirements:\r\n     *\r\n     * - `spender` cannot be the zero address.\r\n     * - `spender` must have allowance for the caller of at least\r\n     * `subtractedValue`.\r\n     */\r\n    function decreaseAllowance(address spender, uint256 subtractedValue)\r\n        public\r\n        virtual\r\n        returns (bool)\r\n    {\r\n        uint256 currentAllowance = _allowances[_msgSender()][spender];\r\n        require(\r\n            currentAllowance >= subtractedValue,\r\n            \"ERC20: decreased allowance below zero\"\r\n        );\r\n        unchecked {\r\n            _approve(_msgSender(), spender, currentAllowance - subtractedValue);\r\n        }\r\n\r\n        return true;\r\n    }\r\n\r\n    /**\r\n     * @dev Moves `amount` of tokens from `sender` to `recipient`.\r\n     *\r\n     * This internal function is equivalent to {transfer}, and can be used to\r\n     * e.g. implement automatic token fees, slashing mechanisms, etc.\r\n     *\r\n     * Emits a {Transfer} event.\r\n     *\r\n     * Requirements:\r\n     *\r\n     * - `sender` cannot be the zero address.\r\n     * - `recipient` cannot be the zero address.\r\n     * - `sender` must have a balance of at least `amount`.\r\n     */\r\n    function _transfer(\r\n        address sender,\r\n        address recipient,\r\n        uint256 amount\r\n    ) internal virtual {\r\n        require(sender != address(0), \"ERC20: transfer from the zero address\");\r\n        require(recipient != address(0), \"ERC20: transfer to the zero address\");\r\n\r\n        _beforeTokenTransfer();\r\n\r\n        uint256 senderBalance = _balances[sender];\r\n        require(\r\n            senderBalance >= amount,\r\n            \"ERC20: transfer amount exceeds balance\"\r\n        );\r\n        unchecked {\r\n            _balances[sender] = senderBalance - amount;\r\n        }\r\n        _balances[recipient] += amount;\r\n\r\n        emit Transfer(sender, recipient, amount);\r\n    }\r\n\r\n    /** @dev Creates `amount` tokens and assigns them to `account`, increasing\r\n     * the total supply.\r\n     *\r\n     * Emits a {Transfer} event with `from` set to the zero address.\r\n     *\r\n     * Requirements:\r\n     *\r\n     * - `account` cannot be the zero address.\r\n     */\r\n    function _mint(address account, uint256 amount) internal virtual {\r\n        require(account != address(0), \"ERC20: mint to the zero address\");\r\n\r\n        _beforeTokenTransfer();\r\n\r\n        _totalSupply += amount;\r\n        _balances[account] += amount;\r\n        emit Transfer(address(0), account, amount);\r\n    }\r\n\r\n    /**\r\n     * @dev Destroys `amount` tokens from `account`, reducing the\r\n     * total supply.\r\n     *\r\n     * Emits a {Transfer} event with `to` set to the zero address.\r\n     *\r\n     * Requirements:\r\n     *\r\n     * - `account` cannot be the zero address.\r\n     * - `account` must have at least `amount` tokens.\r\n     */\r\n    function _burn(address account, uint256 amount) internal virtual {\r\n        require(account != address(0), \"ERC20: burn from the zero address\");\r\n\r\n        _beforeTokenTransfer();\r\n\r\n        uint256 accountBalance = _balances[account];\r\n        require(accountBalance >= amount, \"ERC20: burn amount exceeds balance\");\r\n        unchecked {\r\n            _balances[account] = accountBalance - amount;\r\n        }\r\n        _totalSupply -= amount;\r\n\r\n        emit Transfer(account, address(0), amount);\r\n    }\r\n\r\n    /**\r\n     * @dev Sets `amount` as the allowance of `spender` over the `owner` s tokens.\r\n     *\r\n     * This internal function is equivalent to `approve`, and can be used to\r\n     * e.g. set automatic allowances for certain subsystems, etc.\r\n     *\r\n     * Emits an {Approval} event.\r\n     *\r\n     * Requirements:\r\n     *\r\n     * - `owner` cannot be the zero address.\r\n     * - `spender` cannot be the zero address.\r\n     */\r\n    function _approve(\r\n        address owner,\r\n        address spender,\r\n        uint256 amount\r\n    ) internal virtual {\r\n        require(owner != address(0), \"ERC20: approve from the zero address\");\r\n        require(spender != address(0), \"ERC20: approve to the zero address\");\r\n\r\n        _allowances[owner][spender] = amount;\r\n        emit Approval(owner, spender, amount);\r\n    }\r\n\r\n    /**\r\n     * @dev onlyOwner can pause the token transfer\r\n     */\r\n    function pause() public onlyOwner {\r\n        _pause();\r\n    }\r\n\r\n    /**\r\n     * @dev onlyOwner can unpause the token transfer\r\n     */\r\n    function unpause() public onlyOwner {\r\n        _unpause();\r\n    }\r\n\r\n    /**\r\n     * @dev hook function for before any token transfer.\r\n     *\r\n     * Requirements:\r\n     *\r\n     * - the contract must not be paused.\r\n     */\r\n    function _beforeTokenTransfer() internal view {\r\n        require(!paused(), \"ERC20Pausable: token transfer while paused\");\r\n    }\r\n\r\n    /**\r\n     * @dev Vesting Transfer\r\n     *\r\n     * Requirements:\r\n     *\r\n     * - onlyOwner can do Vesting transfer\r\n     * - `beneficiary` cannot be the zero address.\r\n     * - `lockedUpto` a certain period\r\n     * - the caller must have a balance of at least `amount`.\r\n     */\r\n    function vestingTransfer(\r\n        address beneficiary,\r\n        uint256 lockedUpto,\r\n        uint256 amount\r\n    ) public onlyOwner returns (bool) {\r\n        require(\r\n            beneficiary != address(0),\r\n            \"ERC20: transfer to the zero address\"\r\n        );\r\n\r\n        VestedRecord memory vestRecord = vestedRecords[beneficiary];\r\n\r\n        require(vestRecord.isVested == false, \"LFA: Tokens already vested\");\r\n\r\n        uint256 senderBalance = _balances[_msgSender()];\r\n\r\n        require(\r\n            senderBalance >= amount,\r\n            \"ERC20: transfer amount exceeds balance\"\r\n        );\r\n\r\n        unchecked {\r\n            _balances[_msgSender()] = senderBalance - amount;\r\n        }\r\n\r\n        vestedRecords[beneficiary] = VestedRecord(true, lockedUpto, amount);\r\n\r\n        emit VestedTransfer(_msgSender(), beneficiary, amount);\r\n\r\n        return true;\r\n    }\r\n\r\n    /**\r\n     * @dev Withdraw Vesting Tokens\r\n     *\r\n     * Requirements:\r\n     *\r\n     * - `beneficiary` cannot be the zero address.\r\n     */\r\n    function WithdrawVestedTokens(address beneficiary) public returns (bool) {\r\n        VestedRecord memory vestRecord = vestedRecords[beneficiary];\r\n\r\n        require(vestRecord.isVested == true, \"LFA: No Vested tokens\");\r\n        require(block.timestamp > vestRecord.lockedUpto, \"LFA: Locked Tokens\");\r\n\r\n        _balances[beneficiary] = _balances[beneficiary] + vestRecord.amount;\r\n\r\n        emit VestedWithdraw(beneficiary, vestRecord.amount);\r\n\r\n        delete vestedRecords[beneficiary];\r\n\r\n        return true;\r\n    }\r\n\r\n    /**\r\n     * @dev Vested Balance\r\n     *\r\n     * Requirements:\r\n     * - `beneficiary` cannot be the zero address.\r\n     */\r\n    function vestedBalanceOf(address beneficiary)\r\n        public\r\n        view\r\n        returns (uint256)\r\n    {\r\n        VestedRecord memory vestRecord = vestedRecords[beneficiary];\r\n\r\n        return vestRecord.amount;\r\n    }\r\n\r\n    /**\r\n     * @dev Destroys `amount` tokens from the caller.\r\n     *\r\n     * See {ERC20-_burn}.\r\n     */\r\n    function burn(uint256 amount) public virtual {\r\n        _burn(_msgSender(), amount);\r\n    }\r\n}\r\n",
  "sourcePath": "C:\\Users\\Sudeep\\Desktop\\personal\\lufthansa finance\\contracts\\LufthansaFinanceToken.sol",
  "compiler": {
    "name": "solc",
    "version": "0.8.13+commit.abaa5c0e.Emscripten.clang"
  },
  "schemaVersion": "3.4.2",
  "updatedAt": "2022-04-29T11:58:04.841Z",
  "networkType": "ethereum",
  "devdoc": {
    "details": "{LufthansaFinanceToken} token, including:  - Preminted initial supply  - Pausable  - VestedTokens",
    "events": {
      "VestedTransfer(address,address,uint256)": {
        "details": "Emitted when `value` tokens are vested from owner (`from`) to another (`to`)."
      },
      "VestedWithdraw(address,uint256)": {
        "details": "Emitted when `value` tokens are Withdrawn from vested record to another (`beneficiary`)."
      }
    },
    "kind": "dev",
    "methods": {
      "WithdrawVestedTokens(address)": {
        "details": "Withdraw Vesting Tokens Requirements: - `beneficiary` cannot be the zero address."
      },
      "allowance(address,address)": {
        "details": "See {IERC20-allowance}."
      },
      "approve(address,uint256)": {
        "details": "See {IERC20-approve}. Requirements: - `spender` cannot be the zero address."
      },
      "balanceOf(address)": {
        "details": "See {IERC20-balanceOf}."
      },
      "burn(uint256)": {
        "details": "Destroys `amount` tokens from the caller. See {ERC20-_burn}."
      },
      "constructor": {
        "details": "Sets the values for {name} and {symbol}. Mints `initialSupply` amount of token and transfers them to `owner` The default value of {decimals} is 18. To select a different value for {decimals} you should overload it. All two of these values are immutable: they can only be set once during construction."
      },
      "decimals()": {
        "details": "Returns the number of decimals used to get its user representation. For example, if `decimals` equals `2`, a balance of `505` tokens should be displayed to a user as `5.05` (`505 / 10 ** 2`). Tokens usually opt for a value of 18, imitating the relationship between Ether and Wei. This is the value {ERC20} uses, unless this function is overridden; NOTE: This information is only used for _display_ purposes: it in no way affects any of the arithmetic of the contract, including {IERC20-balanceOf} and {IERC20-transfer}."
      },
      "decreaseAllowance(address,uint256)": {
        "details": "Atomically decreases the allowance granted to `spender` by the caller. This is an alternative to {approve} that can be used as a mitigation for problems described in {IERC20-approve}. Emits an {Approval} event indicating the updated allowance. Requirements: - `spender` cannot be the zero address. - `spender` must have allowance for the caller of at least `subtractedValue`."
      },
      "increaseAllowance(address,uint256)": {
        "details": "Atomically increases the allowance granted to `spender` by the caller. This is an alternative to {approve} that can be used as a mitigation for problems described in {IERC20-approve}. Emits an {Approval} event indicating the updated allowance. Requirements: - `spender` cannot be the zero address."
      },
      "name()": {
        "details": "Returns the name of the token."
      },
      "owner()": {
        "details": "Returns the address of the current owner."
      },
      "pause()": {
        "details": "onlyOwner can pause the token transfer"
      },
      "paused()": {
        "details": "Returns true if the contract is paused, and false otherwise."
      },
      "renounceOwnership()": {
        "details": "Leaves the contract without owner. It will not be possible to call `onlyOwner` functions anymore. Can only be called by the current owner. NOTE: Renouncing ownership will leave the contract without an owner, thereby removing any functionality that is only available to the owner."
      },
      "symbol()": {
        "details": "Returns the symbol of the token, usually a shorter version of the name."
      },
      "totalSupply()": {
        "details": "See {IERC20-totalSupply}."
      },
      "transfer(address,uint256)": {
        "details": "See {IERC20-transfer}. Requirements: - `recipient` cannot be the zero address. - the caller must have a balance of at least `amount`."
      },
      "transferFrom(address,address,uint256)": {
        "details": "See {IERC20-transferFrom}. Emits an {Approval} event indicating the updated allowance. This is not required by the EIP. See the note at the beginning of {ERC20}. Requirements: - `sender` and `recipient` cannot be the zero address. - `sender` must have a balance of at least `amount`. - the caller must have allowance for ``sender``'s tokens of at least `amount`."
      },
      "transferOwnership(address)": {
        "details": "Transfers ownership of the contract to a new account (`newOwner`). Can only be called by the current owner."
      },
      "unpause()": {
        "details": "onlyOwner can unpause the token transfer"
      },
      "vestedBalanceOf(address)": {
        "details": "Vested Balance Requirements: - `beneficiary` cannot be the zero address."
      },
      "vestingTransfer(address,uint256,uint256)": {
        "details": "Vesting Transfer Requirements: - onlyOwner can do Vesting transfer - `beneficiary` cannot be the zero address. - `lockedUpto` a certain period - the caller must have a balance of at least `amount`."
      }
    },
    "version": 1
  },
  "userdoc": {
    "kind": "user",
    "methods": {},
    "version": 1
  }
}