{
  "contractName": "LufthansaFinanceICO",
  "abi": [
    {
      "inputs": [
        {
          "internalType": "address",
          "name": "_token",
          "type": "address"
        },
        {
          "internalType": "uint256",
          "name": "_rate",
          "type": "uint256"
        }
      ],
      "stateMutability": "nonpayable",
      "type": "constructor"
    },
    {
      "anonymous": false,
      "inputs": [
        {
          "indexed": true,
          "internalType": "address",
          "name": "buyer",
          "type": "address"
        },
        {
          "indexed": true,
          "internalType": "uint256",
          "name": "value",
          "type": "uint256"
        }
      ],
      "name": "BoughtTokens",
      "type": "event"
    },
    {
      "anonymous": false,
      "inputs": [
        {
          "indexed": true,
          "internalType": "address",
          "name": "previousOwner",
          "type": "address"
        },
        {
          "indexed": true,
          "internalType": "address",
          "name": "newOwner",
          "type": "address"
        }
      ],
      "name": "OwnershipTransferred",
      "type": "event"
    },
    {
      "inputs": [],
      "name": "endUTCDateTime",
      "outputs": [
        {
          "internalType": "uint256",
          "name": "",
          "type": "uint256"
        }
      ],
      "stateMutability": "view",
      "type": "function",
      "constant": true
    },
    {
      "inputs": [],
      "name": "owner",
      "outputs": [
        {
          "internalType": "address",
          "name": "",
          "type": "address"
        }
      ],
      "stateMutability": "view",
      "type": "function",
      "constant": true
    },
    {
      "inputs": [],
      "name": "phase",
      "outputs": [
        {
          "internalType": "enum LufthansaFinanceICO.State",
          "name": "",
          "type": "uint8"
        }
      ],
      "stateMutability": "view",
      "type": "function",
      "constant": true
    },
    {
      "inputs": [],
      "name": "phaseCap",
      "outputs": [
        {
          "internalType": "uint256",
          "name": "",
          "type": "uint256"
        }
      ],
      "stateMutability": "view",
      "type": "function",
      "constant": true
    },
    {
      "inputs": [],
      "name": "raisedAmount",
      "outputs": [
        {
          "internalType": "uint256",
          "name": "",
          "type": "uint256"
        }
      ],
      "stateMutability": "view",
      "type": "function",
      "constant": true
    },
    {
      "inputs": [],
      "name": "rate",
      "outputs": [
        {
          "internalType": "uint256",
          "name": "",
          "type": "uint256"
        }
      ],
      "stateMutability": "view",
      "type": "function",
      "constant": true
    },
    {
      "inputs": [],
      "name": "renounceOwnership",
      "outputs": [],
      "stateMutability": "nonpayable",
      "type": "function"
    },
    {
      "inputs": [],
      "name": "saleCount",
      "outputs": [
        {
          "internalType": "uint256",
          "name": "",
          "type": "uint256"
        }
      ],
      "stateMutability": "view",
      "type": "function",
      "constant": true
    },
    {
      "inputs": [],
      "name": "startUTCDateTime",
      "outputs": [
        {
          "internalType": "uint256",
          "name": "",
          "type": "uint256"
        }
      ],
      "stateMutability": "view",
      "type": "function",
      "constant": true
    },
    {
      "inputs": [
        {
          "internalType": "address",
          "name": "newOwner",
          "type": "address"
        }
      ],
      "name": "transferOwnership",
      "outputs": [],
      "stateMutability": "nonpayable",
      "type": "function"
    },
    {
      "stateMutability": "payable",
      "type": "receive",
      "payable": true
    },
    {
      "inputs": [],
      "name": "buyTokens",
      "outputs": [],
      "stateMutability": "payable",
      "type": "function",
      "payable": true
    },
    {
      "inputs": [
        {
          "internalType": "uint256",
          "name": "_rate",
          "type": "uint256"
        }
      ],
      "name": "setRate",
      "outputs": [],
      "stateMutability": "nonpayable",
      "type": "function"
    },
    {
      "inputs": [],
      "name": "ownerWithdrawBNB",
      "outputs": [],
      "stateMutability": "nonpayable",
      "type": "function"
    },
    {
      "inputs": [
        {
          "internalType": "uint256",
          "name": "_rate",
          "type": "uint256"
        },
        {
          "internalType": "uint256",
          "name": "_phaseCap",
          "type": "uint256"
        },
        {
          "internalType": "enum LufthansaFinanceICO.State",
          "name": "_state",
          "type": "uint8"
        }
      ],
      "name": "addPhaseSetting",
      "outputs": [],
      "stateMutability": "nonpayable",
      "type": "function"
    },
    {
      "inputs": [],
      "name": "viewPhaseSettings",
      "outputs": [
        {
          "internalType": "uint256",
          "name": "_startUTCDateTime",
          "type": "uint256"
        },
        {
          "internalType": "uint256",
          "name": "_endUTCDateTime",
          "type": "uint256"
        },
        {
          "internalType": "uint256",
          "name": "_phaseCap",
          "type": "uint256"
        },
        {
          "internalType": "uint256",
          "name": "_saleCount",
          "type": "uint256"
        },
        {
          "internalType": "uint256",
          "name": "_rate",
          "type": "uint256"
        },
        {
          "internalType": "enum LufthansaFinanceICO.State",
          "name": "_phase",
          "type": "uint8"
        }
      ],
      "stateMutability": "view",
      "type": "function",
      "constant": true
    }
  ],
  "bytecode": "0x60806040523480156200001157600080fd5b506040516200151a3803806200151a833981810160405281019062000037919062000246565b620000576200004b620000d560201b60201c565b620000dd60201b60201c565b81600160006101000a81548173ffffffffffffffffffffffffffffffffffffffff021916908373ffffffffffffffffffffffffffffffffffffffff160217905550806005819055506000600860006101000a81548160ff02191690836004811115620000c857620000c76200028d565b5b02179055505050620002bc565b600033905090565b60008060009054906101000a900473ffffffffffffffffffffffffffffffffffffffff169050816000806101000a81548173ffffffffffffffffffffffffffffffffffffffff021916908373ffffffffffffffffffffffffffffffffffffffff1602179055508173ffffffffffffffffffffffffffffffffffffffff168173ffffffffffffffffffffffffffffffffffffffff167f8be0079c531659141344cd1fd0a4f28419497f9722a3daafe3b4186f6b6457e060405160405180910390a35050565b600080fd5b600073ffffffffffffffffffffffffffffffffffffffff82169050919050565b6000620001d382620001a6565b9050919050565b620001e581620001c6565b8114620001f157600080fd5b50565b6000815190506200020581620001da565b92915050565b6000819050919050565b62000220816200020b565b81146200022c57600080fd5b50565b600081519050620002408162000215565b92915050565b6000806040838503121562000260576200025f620001a1565b5b60006200027085828601620001f4565b925050602062000283858286016200022f565b9150509250929050565b7f4e487b7100000000000000000000000000000000000000000000000000000000600052602160045260246000fd5b61124e80620002cc6000396000f3fe6080604052600436106100ec5760003560e01c80638da5cb5b1161008a578063c59ee1dc11610059578063c59ee1dc146102a5578063d0febe4c146102d0578063e2351195146102da578063f2fde38b1461030a576100f3565b80638da5cb5b146101f957806393b5cd9414610224578063a1e89aec1461024f578063b1c9fe6e1461027a576100f3565b80635b03ba49116100c65780635b03ba4914610175578063715018a6146101a05780637c50601c146101b757806386c9667a146101ce576100f3565b80632c4e722e146100f8578063301502501461012357806334fcf4371461014c576100f3565b366100f357005b600080fd5b34801561010457600080fd5b5061010d610333565b60405161011a9190610b45565b60405180910390f35b34801561012f57600080fd5b5061014a60048036038101906101459190610bb6565b610339565b005b34801561015857600080fd5b50610173600480360381019061016e9190610c09565b61040e565b005b34801561018157600080fd5b5061018a610494565b6040516101979190610b45565b60405180910390f35b3480156101ac57600080fd5b506101b561049a565b005b3480156101c357600080fd5b506101cc610522565b005b3480156101da57600080fd5b506101e36105f4565b6040516101f09190610b45565b60405180910390f35b34801561020557600080fd5b5061020e6105fa565b60405161021b9190610c77565b60405180910390f35b34801561023057600080fd5b50610239610623565b6040516102469190610b45565b60405180910390f35b34801561025b57600080fd5b50610264610629565b6040516102719190610b45565b60405180910390f35b34801561028657600080fd5b5061028f61062f565b60405161029c9190610d09565b60405180910390f35b3480156102b157600080fd5b506102ba610642565b6040516102c79190610b45565b60405180910390f35b6102d8610648565b005b3480156102e657600080fd5b506102ef61092d565b60405161030196959493929190610d24565b60405180910390f35b34801561031657600080fd5b50610331600480360381019061032c9190610db1565b610969565b005b60055481565b610341610a60565b73ffffffffffffffffffffffffffffffffffffffff1661035f6105fa565b73ffffffffffffffffffffffffffffffffffffffff16146103b5576040517f08c379a00000000000000000000000000000000000000000000000000000000081526004016103ac90610e3b565b60405180910390fd5b80600860006101000a81548160ff021916908360048111156103da576103d9610c92565b5b021790555042600281905550620d2f00426103f59190610e8a565b6003819055508260058190555081600481905550505050565b610416610a60565b73ffffffffffffffffffffffffffffffffffffffff166104346105fa565b73ffffffffffffffffffffffffffffffffffffffff161461048a576040517f08c379a000000000000000000000000000000000000000000000000000000000815260040161048190610e3b565b60405180910390fd5b8060058190555050565b60035481565b6104a2610a60565b73ffffffffffffffffffffffffffffffffffffffff166104c06105fa565b73ffffffffffffffffffffffffffffffffffffffff1614610516576040517f08c379a000000000000000000000000000000000000000000000000000000000815260040161050d90610e3b565b60405180910390fd5b6105206000610a68565b565b61052a610a60565b73ffffffffffffffffffffffffffffffffffffffff166105486105fa565b73ffffffffffffffffffffffffffffffffffffffff161461059e576040517f08c379a000000000000000000000000000000000000000000000000000000000815260040161059590610e3b565b60405180910390fd5b60004790506105ab610a60565b73ffffffffffffffffffffffffffffffffffffffff166108fc829081150290604051600060405180830381858888f193505050501580156105f0573d6000803e3d6000fd5b5050565b60045481565b60008060009054906101000a900473ffffffffffffffffffffffffffffffffffffffff16905090565b60025481565b60065481565b600860009054906101000a900460ff1681565b60075481565b6000341161068b576040517f08c379a000000000000000000000000000000000000000000000000000000000815260040161068290610f2c565b60405180910390fd5b6000600481111561069f5761069e610c92565b5b600860009054906101000a900460ff1660048111156106c1576106c0610c92565b5b03610701576040517f08c379a00000000000000000000000000000000000000000000000000000000081526004016106f890610f98565b60405180910390fd5b60048081111561071457610713610c92565b5b600860009054906101000a900460ff16600481111561073657610735610c92565b5b03610776576040517f08c379a000000000000000000000000000000000000000000000000000000000815260040161076d90611004565b60405180910390fd5b600034905060006005548261078b9190611024565b90503460075461079b9190610e8a565b600781905550806107aa610a60565b73ffffffffffffffffffffffffffffffffffffffff167f61b2357f75eed32a19939598e4c7563879bacd78e9d957c31f0f9f70a3fd14a060405160405180910390a3600160009054906101000a900473ffffffffffffffffffffffffffffffffffffffff1673ffffffffffffffffffffffffffffffffffffffff166323b872dd6108326105fa565b61083a610a60565b846040518463ffffffff1660e01b81526004016108599392919061107e565b6020604051808303816000875af1158015610878573d6000803e3d6000fd5b505050506040513d601f19601f8201168201806040525081019061089c91906110ed565b6108db576040517f08c379a00000000000000000000000000000000000000000000000000000000081526004016108d290611166565b60405180910390fd5b6108e36105fa565b73ffffffffffffffffffffffffffffffffffffffff166108fc349081150290604051600060405180830381858888f19350505050158015610928573d6000803e3d6000fd5b505050565b600080600080600080600254600354600454600654600554600860009054906101000a900460ff16955095509550955095509550909192939495565b610971610a60565b73ffffffffffffffffffffffffffffffffffffffff1661098f6105fa565b73ffffffffffffffffffffffffffffffffffffffff16146109e5576040517f08c379a00000000000000000000000000000000000000000000000000000000081526004016109dc90610e3b565b60405180910390fd5b600073ffffffffffffffffffffffffffffffffffffffff168173ffffffffffffffffffffffffffffffffffffffff1603610a54576040517f08c379a0000000000000000000000000000000000000000000000000000000008152600401610a4b906111f8565b60405180910390fd5b610a5d81610a68565b50565b600033905090565b60008060009054906101000a900473ffffffffffffffffffffffffffffffffffffffff169050816000806101000a81548173ffffffffffffffffffffffffffffffffffffffff021916908373ffffffffffffffffffffffffffffffffffffffff1602179055508173ffffffffffffffffffffffffffffffffffffffff168173ffffffffffffffffffffffffffffffffffffffff167f8be0079c531659141344cd1fd0a4f28419497f9722a3daafe3b4186f6b6457e060405160405180910390a35050565b6000819050919050565b610b3f81610b2c565b82525050565b6000602082019050610b5a6000830184610b36565b92915050565b600080fd5b610b6e81610b2c565b8114610b7957600080fd5b50565b600081359050610b8b81610b65565b92915050565b60058110610b9e57600080fd5b50565b600081359050610bb081610b91565b92915050565b600080600060608486031215610bcf57610bce610b60565b5b6000610bdd86828701610b7c565b9350506020610bee86828701610b7c565b9250506040610bff86828701610ba1565b9150509250925092565b600060208284031215610c1f57610c1e610b60565b5b6000610c2d84828501610b7c565b91505092915050565b600073ffffffffffffffffffffffffffffffffffffffff82169050919050565b6000610c6182610c36565b9050919050565b610c7181610c56565b82525050565b6000602082019050610c8c6000830184610c68565b92915050565b7f4e487b7100000000000000000000000000000000000000000000000000000000600052602160045260246000fd5b60058110610cd257610cd1610c92565b5b50565b6000819050610ce382610cc1565b919050565b6000610cf382610cd5565b9050919050565b610d0381610ce8565b82525050565b6000602082019050610d1e6000830184610cfa565b92915050565b600060c082019050610d396000830189610b36565b610d466020830188610b36565b610d536040830187610b36565b610d606060830186610b36565b610d6d6080830185610b36565b610d7a60a0830184610cfa565b979650505050505050565b610d8e81610c56565b8114610d9957600080fd5b50565b600081359050610dab81610d85565b92915050565b600060208284031215610dc757610dc6610b60565b5b6000610dd584828501610d9c565b91505092915050565b600082825260208201905092915050565b7f4f776e61626c653a2063616c6c6572206973206e6f7420746865206f776e6572600082015250565b6000610e25602083610dde565b9150610e3082610def565b602082019050919050565b60006020820190508181036000830152610e5481610e18565b9050919050565b7f4e487b7100000000000000000000000000000000000000000000000000000000600052601160045260246000fd5b6000610e9582610b2c565b9150610ea083610b2c565b9250827fffffffffffffffffffffffffffffffffffffffffffffffffffffffffffffffff03821115610ed557610ed4610e5b565b5b828201905092915050565b7f496e636f727265637420616d6f756e7400000000000000000000000000000000600082015250565b6000610f16601083610dde565b9150610f2182610ee0565b602082019050919050565b60006020820190508181036000830152610f4581610f09565b9050919050565b7f53616c65206e6f74207374617274656400000000000000000000000000000000600082015250565b6000610f82601083610dde565b9150610f8d82610f4c565b602082019050919050565b60006020820190508181036000830152610fb181610f75565b9050919050565b7f53616c6520456e64656400000000000000000000000000000000000000000000600082015250565b6000610fee600a83610dde565b9150610ff982610fb8565b602082019050919050565b6000602082019050818103600083015261101d81610fe1565b9050919050565b600061102f82610b2c565b915061103a83610b2c565b9250817fffffffffffffffffffffffffffffffffffffffffffffffffffffffffffffffff048311821515161561107357611072610e5b565b5b828202905092915050565b60006060820190506110936000830186610c68565b6110a06020830185610c68565b6110ad6040830184610b36565b949350505050565b60008115159050919050565b6110ca816110b5565b81146110d557600080fd5b50565b6000815190506110e7816110c1565b92915050565b60006020828403121561110357611102610b60565b5b6000611111848285016110d8565b91505092915050565b7f53616c653a20546f6b656e5472616e73666572206661696c6564000000000000600082015250565b6000611150601a83610dde565b915061115b8261111a565b602082019050919050565b6000602082019050818103600083015261117f81611143565b9050919050565b7f4f776e61626c653a206e6577206f776e657220697320746865207a65726f206160008201527f6464726573730000000000000000000000000000000000000000000000000000602082015250565b60006111e2602683610dde565b91506111ed82611186565b604082019050919050565b60006020820190508181036000830152611211816111d5565b905091905056fea264697066735822122061264c0a61e90258fec230607add320a85cb0a40721709392276a91d9d96e67c64736f6c634300080d0033",
  "immutableReferences": {},
  "source": "//SPDX-License-Identifier: MIT\r\n// File: @openzeppelin/contracts/utils/Context.sol\r\n\r\npragma solidity 0.8.13;\r\n\r\n/**\r\n * @dev Provides information about the current execution context, including the\r\n * sender of the transaction and its data. While these are generally available\r\n * via msg.sender and msg.data, they should not be accessed in such a direct\r\n * manner, since when dealing with meta-transactions the account sending and\r\n * paying for execution may not be the actual sender (as far as an application\r\n * is concerned).\r\n *\r\n * This contract is only required for intermediate, library-like contracts.\r\n */\r\nabstract contract Context {\r\n    function _msgSender() internal view virtual returns (address) {\r\n        return msg.sender;\r\n    }\r\n\r\n    function _msgData() internal view virtual returns (bytes calldata) {\r\n        return msg.data;\r\n    }\r\n}\r\n\r\n// File: @openzeppelin/contracts/access/Ownable.sol\r\n\r\n// pragma solidity ^0.8.0;\r\n\r\n/**\r\n * @dev Contract module which provides a basic access control mechanism, where\r\n * there is an account (an owner) that can be granted exclusive access to\r\n * specific functions.\r\n *\r\n * By default, the owner account will be the one that deploys the contract. This\r\n * can later be changed with {transferOwnership}.\r\n *\r\n * This module is used through inheritance. It will make available the modifier\r\n * `onlyOwner`, which can be applied to your functions to restrict their use to\r\n * the owner.\r\n */\r\nabstract contract Ownable is Context {\r\n    address private _owner;\r\n\r\n    event OwnershipTransferred(\r\n        address indexed previousOwner,\r\n        address indexed newOwner\r\n    );\r\n\r\n    /**\r\n     * @dev Initializes the contract setting the deployer as the initial owner.\r\n     */\r\n    constructor() {\r\n        _setOwner(_msgSender());\r\n    }\r\n\r\n    /**\r\n     * @dev Returns the address of the current owner.\r\n     */\r\n    function owner() public view virtual returns (address) {\r\n        return _owner;\r\n    }\r\n\r\n    /**\r\n     * @dev Throws if called by any account other than the owner.\r\n     */\r\n    modifier onlyOwner() {\r\n        require(owner() == _msgSender(), \"Ownable: caller is not the owner\");\r\n        _;\r\n    }\r\n\r\n    /**\r\n     * @dev Leaves the contract without owner. It will not be possible to call\r\n     * `onlyOwner` functions anymore. Can only be called by the current owner.\r\n     *\r\n     * NOTE: Renouncing ownership will leave the contract without an owner,\r\n     * thereby removing any functionality that is only available to the owner.\r\n     */\r\n    function renounceOwnership() public virtual onlyOwner {\r\n        _setOwner(address(0));\r\n    }\r\n\r\n    /**\r\n     * @dev Transfers ownership of the contract to a new account (`newOwner`).\r\n     * Can only be called by the current owner.\r\n     */\r\n    function transferOwnership(address newOwner) public virtual onlyOwner {\r\n        require(\r\n            newOwner != address(0),\r\n            \"Ownable: new owner is the zero address\"\r\n        );\r\n        _setOwner(newOwner);\r\n    }\r\n\r\n    function _setOwner(address newOwner) private {\r\n        address oldOwner = _owner;\r\n        _owner = newOwner;\r\n        emit OwnershipTransferred(oldOwner, newOwner);\r\n    }\r\n}\r\n\r\n// File: @openzeppelin/contracts/token/ERC20/IERC20.sol\r\n\r\n// pragma solidity ^0.8.0;\r\n\r\n/**\r\n * @dev Interface of the ERC20 standard as defined in the EIP.\r\n */\r\ninterface IERC20 {\r\n    /**\r\n     * @dev Returns the amount of tokens in existence.\r\n     */\r\n    function totalSupply() external view returns (uint256);\r\n\r\n    /**\r\n     * @dev Returns the amount of tokens owned by `account`.\r\n     */\r\n    function balanceOf(address account) external view returns (uint256);\r\n\r\n    /**\r\n     * @dev Moves `amount` tokens from the caller's account to `recipient`.\r\n     *\r\n     * Returns a boolean value indicating whether the operation succeeded.\r\n     *\r\n     * Emits a {Transfer} event.\r\n     */\r\n    function transfer(address recipient, uint256 amount)\r\n        external\r\n        returns (bool);\r\n\r\n    /**\r\n     * @dev Returns the remaining number of tokens that `spender` will be\r\n     * allowed to spend on behalf of `owner` through {transferFrom}. This is\r\n     * zero by default.\r\n     *\r\n     * This value changes when {approve} or {transferFrom} are called.\r\n     */\r\n    function allowance(address owner, address spender)\r\n        external\r\n        view\r\n        returns (uint256);\r\n\r\n    /**\r\n     * @dev Sets `amount` as the allowance of `spender` over the caller's tokens.\r\n     *\r\n     * Returns a boolean value indicating whether the operation succeeded.\r\n     *\r\n     * IMPORTANT: Beware that changing an allowance with this method brings the risk\r\n     * that someone may use both the old and the new allowance by unfortunate\r\n     * transaction ordering. One possible solution to mitigate this race\r\n     * condition is to first reduce the spender's allowance to 0 and set the\r\n     * desired value afterwards:\r\n     * https://github.com/ethereum/EIPs/issues/20#issuecomment-263524729\r\n     *\r\n     * Emits an {Approval} event.\r\n     */\r\n    function approve(address spender, uint256 amount) external returns (bool);\r\n\r\n    /**\r\n     * @dev Moves `amount` tokens from `sender` to `recipient` using the\r\n     * allowance mechanism. `amount` is then deducted from the caller's\r\n     * allowance.\r\n     *\r\n     * Returns a boolean value indicating whether the operation succeeded.\r\n     *\r\n     * Emits a {Transfer} event.\r\n     */\r\n    function transferFrom(\r\n        address sender,\r\n        address recipient,\r\n        uint256 amount\r\n    ) external returns (bool);\r\n\r\n    /**\r\n     * @dev Emitted when `value` tokens are moved from one account (`from`) to\r\n     * another (`to`).\r\n     *\r\n     * Note that `value` may be zero.\r\n     */\r\n    event Transfer(address indexed from, address indexed to, uint256 value);\r\n\r\n    /**\r\n     * @dev Emitted when the allowance of a `spender` for an `owner` is set by\r\n     * a call to {approve}. `value` is the new allowance.\r\n     */\r\n    event Approval(\r\n        address indexed owner,\r\n        address indexed spender,\r\n        uint256 value\r\n    );\r\n}\r\n\r\n// File: contracts/LuftansaSale.sol\r\n\r\n// pragma solidity 0.8.13;\r\n\r\n/**\r\n * @dev Token Buy contract\r\n *\r\n */\r\n\r\ncontract LufthansaFinanceICO is Context, Ownable {\r\n    enum State {\r\n        ToStart,\r\n        Phase1,\r\n        Phase2,\r\n        Phase3,\r\n        Ended\r\n    }\r\n    IERC20 token;\r\n\r\n    uint256 public startUTCDateTime;\r\n    uint256 public endUTCDateTime;\r\n    uint256 public phaseCap;\r\n    uint256 public rate; // tokens per bnb\r\n    uint256 public saleCount; // total token sold\r\n    uint256 public raisedAmount; // in wei\r\n    State public phase;\r\n\r\n    constructor(address _token, uint256 _rate) {\r\n        token = IERC20(_token);\r\n        rate = _rate;\r\n        phase = State.ToStart;\r\n    }\r\n\r\n    /**\r\n     * BoughtTokens\r\n     * @dev Log tokens bought on the blockchain\r\n     */\r\n    event BoughtTokens(address indexed buyer, uint256 indexed value);\r\n\r\n    /**\r\n     * buyTokens\r\n     * @dev function that sells owner approved tokens\r\n     */\r\n    function buyTokens() public payable {\r\n        require(msg.value > 0, \"Incorrect amount\");\r\n        require(phase != State.ToStart, \"Sale not started\");\r\n        require(phase != State.Ended, \"Sale Ended\");\r\n\r\n        uint256 weiAmount = msg.value;\r\n\r\n        uint256 tokens = weiAmount * rate;\r\n\r\n        raisedAmount = raisedAmount + msg.value;\r\n        emit BoughtTokens(_msgSender(), tokens);\r\n\r\n        require(\r\n            token.transferFrom(owner(), _msgSender(), tokens),\r\n            \"Sale: TokenTransfer failed\"\r\n        );\r\n\r\n        payable(owner()).transfer(msg.value);\r\n    }\r\n\r\n    /**\r\n     * setRate\r\n     * @dev function that sets rate\r\n     */\r\n    function setRate(uint256 _rate) public onlyOwner {\r\n        rate = _rate;\r\n    }\r\n\r\n    /**\r\n     * receive\r\n     * @dev to enable contract to receive bnb\r\n     *\r\n     */\r\n    receive() external payable {}\r\n\r\n    /**\r\n     * ownerWithdrawBNB\r\n     * @dev owner will be able to withdraw any remaining bnb\r\n     *\r\n     */\r\n    function ownerWithdrawBNB() public onlyOwner {\r\n        uint256 balance = address(this).balance;\r\n        payable(_msgSender()).transfer(balance);\r\n    }\r\n\r\n    /**\r\n     * @dev Setup Sale from smart contract.\r\n     */\r\n\r\n    function addPhaseSetting(\r\n        uint256 _rate,\r\n        uint256 _phaseCap,\r\n        State _state\r\n    ) public onlyOwner {\r\n        phase = State(_state);\r\n        startUTCDateTime = block.timestamp;\r\n        endUTCDateTime = block.timestamp + 864000;\r\n        rate = _rate;\r\n        phaseCap = _phaseCap;\r\n    }\r\n\r\n    /**\r\n     * @dev View Setuped Sale from smart contract.\r\n     */\r\n\r\n    function viewPhaseSettings()\r\n        public\r\n        view\r\n        returns (\r\n            uint256 _startUTCDateTime,\r\n            uint256 _endUTCDateTime,\r\n            uint256 _phaseCap,\r\n            uint256 _saleCount,\r\n            uint256 _rate,\r\n            State _phase\r\n        )\r\n    {\r\n        return (\r\n            startUTCDateTime,\r\n            endUTCDateTime,\r\n            phaseCap,\r\n            saleCount,\r\n            rate,\r\n            phase\r\n        );\r\n    }\r\n}\r\n",
  "sourcePath": "C:\\Users\\Sudeep\\Desktop\\personal\\lufthansa finance\\contracts\\LufthansaFinanceOffering.sol",
  "compiler": {
    "name": "solc",
    "version": "0.8.13+commit.abaa5c0e.Emscripten.clang"
  },
  "schemaVersion": "3.4.2",
  "updatedAt": "2022-05-03T13:45:53.073Z",
  "networkType": "ethereum",
  "devdoc": {
    "details": "Token Buy contract",
    "events": {
      "BoughtTokens(address,uint256)": {
        "details": "Log tokens bought on the blockchain"
      }
    },
    "kind": "dev",
    "methods": {
      "addPhaseSetting(uint256,uint256,uint8)": {
        "details": "Setup Sale from smart contract."
      },
      "buyTokens()": {
        "details": "function that sells owner approved tokens"
      },
      "owner()": {
        "details": "Returns the address of the current owner."
      },
      "ownerWithdrawBNB()": {
        "details": "owner will be able to withdraw any remaining bnb"
      },
      "renounceOwnership()": {
        "details": "Leaves the contract without owner. It will not be possible to call `onlyOwner` functions anymore. Can only be called by the current owner. NOTE: Renouncing ownership will leave the contract without an owner, thereby removing any functionality that is only available to the owner."
      },
      "setRate(uint256)": {
        "details": "function that sets rate"
      },
      "transferOwnership(address)": {
        "details": "Transfers ownership of the contract to a new account (`newOwner`). Can only be called by the current owner."
      },
      "viewPhaseSettings()": {
        "details": "View Setuped Sale from smart contract."
      }
    },
    "version": 1
  },
  "userdoc": {
    "events": {
      "BoughtTokens(address,uint256)": {
        "notice": "BoughtTokens"
      }
    },
    "kind": "user",
    "methods": {
      "buyTokens()": {
        "notice": "buyTokens"
      },
      "ownerWithdrawBNB()": {
        "notice": "ownerWithdrawBNB"
      },
      "setRate(uint256)": {
        "notice": "setRate"
      }
    },
    "version": 1
  }
}